:020000041000EA
:1000000000B5324B212058609868022188439860DF
:10001000D860186158612E4B002199600221596106
:100020000121F02299502B49196001219960352056
:1000300000F044F80222904214D00621196600F024
:1000400034F8196E01211966002018661A6600F04E
:100050002CF8196E196E196E052000F02FF8012189
:100060000842F9D1002199601B49196000215960AB
:100070001A491B48016001219960EB211966A021F2
:10008000196600F012F800219960164914480160C1
:100090000121996001BC002800D000471248134993
:1000A000086003C880F30888084703B5996A0420EC
:1000B0000142FBD001200142F8D103BD02B5186610
:1000C0001866FFF7F2FF186E186E02BD00000240BE
:1000D000000000180000070000035F00212200005C
:1000E000F4000018222000A00001001008ED00E03C
:1000F00000000000000000000000000074B24E7A12
:1001000000200420F7010010C3010010C5010010F9
:10011000C1010010C1010010C1010010C101001097
:10012000C1010010C1010010C1010010C701001081
:10013000C1010010C1010010C9010010CB01001065
:10014000CD010010CD010010CD010010CD01001037
:10015000CD010010CD010010CD010010CD01001027
:10016000CD010010CD010010CD010010CD01001017
:10017000CD010010CD010010CD010010CD01001007
:10018000CD010010CD010010CD010010CD010010F7
:10019000CD010010CD010010CD010010CD010010E7
:1001A000CD010010CD010010CD010010CD010010D7
:1001B000CD010010CD010010CD010010CD010010C7
:1001C00000BE00BE00BE00BE00BE00BE00F04BF888
:1001D000103800BEF2EB887124CD00104CCD001019
:1001E0003402001090A31AE700202149086006C8D5
:1001F00081F3088810471F48006800282FD10DA4FC
:100200000ECC002902D000F012F8F9E71A491B4A77
:10021000002000E001C19142FCD1194988471949E9
:1002200088471949884700BEFDE701C901C29A42C3
:10023000FBD370474CCD0010C0000020100E0020F2
:100240009CDA001000000420000004209CDA00105A
:1002500000100420001004200000000070470B482C
:1002600004F06EFF0047EFF30580C0B27047000056
:1002700008ED00E0000000D0100E0020081C002057
:10028000113600106D04001025370010575600007D
:1002900006005250ABB36053C0C30010060052506A
:1002A000861C0302D0C30010060052505422A29DA7
:1002B000DCC3001005005250DE65F4689CDA0010C3
:1002C000F8B5C0460448054B10B5834203D0044B33
:1002D000002B00D0984710BD100E0020100E0020FB
:1002E0000000000006480749091A8B10C90FC918F9
:1002F00010B5491003D0044B002B00D0984710BD17
:10030000100E0020100E00200000000010B5074C59
:100310002378002B09D1FFF7D5FF054B002B02D026
:10032000044800E000BF0123237010BD180F002017
:1003300000000000A89E0010054B10B5002B03D054
:100340000449054800E000BFFFF7CCFF10BDC046E0
:10035000000000001C0F0020A89E001010B5D02344
:100360001B061B6DDB0705D509F085F8400009F079
:1003700078F8F4E7D0231B06FF221A6510BDD023BE
:100380001B061B699B0117D4D0231B0680229200F9
:100390005A618022D2005A61802212015A61802261
:1003A00052015A61802292015A618022D2015A611F
:1003B000802292045A617047D0231B06802292004B
:1003C0009A618022D2009A61802212019A61802271
:1003D00052019A61802292019A618022D2019A612F
:1003E000802292049A61E6E7D0231B061B699B01D9
:1003F00005D4D0231B06802292015A617047D02376
:100400001B06802292019A61F8E7000010B5D02304
:100410001B06FF221A650A49102003F047FB012141
:10042000102003F02BFB04E0FFF7DEFF054B00225A
:100430001A60044A136801331360222BF9D1F3E7E1
:100440005D0300101C14002010B5054805F0F2FFF4
:10045000044805F0EFFF044805F0ECFF10BDC0466E
:10046000A89E0010F49E00103C9F001070B506F08E
:100470001DF88C4809F068F8FA20C00002F0ECFC86
:10048000894805F0D7FF894806F004F8884805F048
:10049000D1FF884805F0CEFFFA24A400200002F026
:1004A000DBFC8549854808F067FF854805F0F2FFC9
:1004B0000321042001F016FE0321052001F012FEA5
:1004C00000220121042001F025FE00220121052047
:1004D00001F020FE7B4805F0ADFF200002F0BCFCDF
:1004E000794805F0A7FF192001F046FE092001F028
:1004F00043FE0A2001F040FE0B2001F03DFE0C20DF
:1005000001F03AFE0D2001F037FE0E2001F034FE1E
:10051000102001F031FE6D4805F0BCFFD02212061C
:1005200080239B045362126A1A4200D190E0C046B5
:10053000D0231B068026B6005E628025ED005D623A
:10054000802424015C62802040015862802189015E
:1005500059628022D2015A629E619D619C619861BC
:1005600099619A61802292049A61594805F062FF6C
:10057000183D280002F070FC564C200005F05AFF90
:100580004A4805F087FF4A4805F054FF280002F06A
:1005900063FC200005F04EFF4F4805F07BFF01F0A3
:1005A00057FA022858D94D4805F044FFFA25AD0006
:1005B000280002F051FC4A4C200005F03BFF49485E
:1005C00005F068FF01F074FA280002F045FC2000F5
:1005D00005F030FF01F0C4F801F0DCF801F00EFA8C
:1005E00001F02AFC404801F05FFD404E404C3200D3
:1005F0004049200001F060FB3F4D2A003F492000A8
:1006000001F05AFB3E4A3F49200001F055FB320001
:100610003D49200001F0B0FB3C4A3D49200001F07B
:10062000ABFB3C4A3C49200001F0A6FB3B4A3C495D
:10063000200001F0A1FB2A003A49200001F09CFBB8
:10064000394A3A49200001F097FB01F057FC22E0BB
:10065000374805F0EFFE6BE7364805F0EBFEA5E7FF
:1006600000220021002001F09FF801F097FA01F02C
:10067000C5FCC821304805F00DFFC82008F0F1FE88
:1006800008F0F9FE01002D4805F004FF102001F0EC
:1006900047F9FFF774FEFFF7D7FE00F0D7F9C3075D
:1006A000FBD4DDE70D040010889F0010D09F0010E0
:1006B000EC9F00100CA00010801A0600A00500207E
:1006C00028A000103CA0001018A7001064A0001083
:1006D000B8A00010B49F0010E0A00010FCA0001013
:1006E000B89F00104CA10010B11F001068A10010AD
:1006F0000040034070A1001084A1001090A10010E0
:10070000A4A10010B0A10010BCA10010C8A100104D
:10071000D0A10010DCA10010E4A10010F4A1001091
:1007200000A200100CA2001018A2001020A20010BD
:100730007CA0001024A100102CA2001048A20010E0
:1007400030B583B0424805F075FE012005F022FD6A
:100750000400012005F01EFD0500002C42D00028F9
:100760004CD0C046D0232B700023009301332A00C5
:100770007621384808F02CFE01284BD05823364A01
:100780003649374805F086FE02214942354805F0D2
:1007900081FE002300930133220076212D4808F0CA
:1007A00023FE01283BD066232B4A2F492C4805F015
:1007B00071FE21782D4805F06DFE2378602B33D033
:1007C000012B36D02A4805F035FE7B23224A2949E1
:1007D000234805F05FFE284805F02CFE012040422A
:1007E00003B030BD47231C4A24491D4805F052FE82
:1007F00008214942224805F04DFEB3E74C23164A32
:100800001E49174805F046FE082149421C4805F0DC
:1008100041FEA7E729781B4805F03CFEB9E7297897
:10082000194805F037FEC4E7184805F003FE00201C
:10083000D6E7174805F0FEFD7323074A1549084817
:1008400005F028FE0C4805F0F5FD01204042C7E701
:100850006CA20010A005002080B1001040A3001081
:10086000F0A200106CA30010E8A3001020A4001058
:10087000B0A40010E8A400109CA40010B8A20010BE
:1008800008A300109CA30010C4A300103CA40010F7
:1008900058A4001084A4001070B582B0204805F060
:1008A000C9FD022005F076FC041E27D0C046E023D7
:1008B00023702A3B63701B4D00260096B43B220038
:1008C0007621280008F084FD00960223220076217C
:1008D000280008F07DFD02281CD0B123124A1349DC
:1008E000134805F0D7FD02214942124805F0D2FD18
:1008F000200005F06DFC002002B070BD9D230A4A67
:100900000D490B4805F0C6FD082149420B4805F08A
:10091000C1FDCCE721786278094805F0BBFDE7E727
:1009200004A50010A005002090B1001050A50010F3
:10093000F0A200107CA50010B8A2001008A30010BF
:10094000ACA50010F0B587B00500214805F072FD98
:10095000204B1B786A4613751F4E00270097012312
:1009600005AA7621300008F033FD0A2002F074FA5F
:100970006B46197D194805F08DFD0097012304AAE7
:100980007621300008F030FD0A2002F065FA6B464F
:10099000197C134805F07EFD6B461C7C03239C43A9
:1009A000230003242C401C430E4B1D7021000E48D5
:1009B00005F070FDF4236A46137354730097022305
:1009C00003AA7621300008F003FD002007B0F0BD37
:1009D000E0A5001098A60010A005002028A6001091
:1009E00050A600100819002078A6001030B585B078
:1009F000124805F01FFD124B1B786A461373114C09
:100A000000250095012303AA7621200008F0E0FCD0
:100A10000A2002F021FA0095012303AA7621200082
:100A200008F0E2FC0A2002F017FA6B46197B064830
:100A300005F030FD002005B030BDC0469CA600107A
:100A400098A60010A005002050A6001070B584B034
:100A5000254805F0EFFC03AC244B1B782370244D94
:100A600000260096012322007621280008F0B0FC21
:100A70000A2002F0F1F900960123220076212800D5
:100A800008F0B2FC0A2002F0E7F92178194805F0D5
:100A900001FD2278092313402370082B12D007D8B8
:100AA000002B13D0012B15D1134805F0C3FC04E033
:100AB000092B0FD1114805F0BDFC03AB00201856DF
:100AC00004B070BD0E4805F0B5FCF6E70D4805F022
:100AD000B1FCF2E7F3210C4805F0DCFC03AA117825
:100AE00009230B401370E8E7E4A6001034A80010B7
:100AF000A00500202CA70010B8A7001058A70010D0
:100B000098A70010DCA7001000A8001010B5040082
:100B100001882B4805F0BEFC0223E15E294805F060
:100B2000B9FC0423E15E284805F0B4FCE1882748BD
:100B300005F0B0FC0823E15E254805F0ABFC0A2374
:100B4000E15E244805F0A6FC0C23E15E224805F096
:100B5000A1FC0E23E15E214805F09CFC1023E15E20
:100B60001F4805F097FC1223E15E1E4805F092FC39
:100B70001423E15E1C4805F08DFC1623E15E1B4842
:100B800005F088FC217E1A4805F084FC1A23E15EFA
:100B9000184805F07FFC217F174805F07BFC1E23D9
:100BA000E15E164805F076FC2023E15E144805F06E
:100BB00071FC2223E156134805F06CFC10BDC046C1
:100BC00038A8001050A8001068A8001080A80010D5
:100BD00098A80010B0A80010C8A80010E0A8001045
:100BE000F8A8001010A9001028A9001040A90010B2
:100BF00058A9001070A9001088A90010A0A9001021
:100C0000B8A90010D0A90010F0B5C64600B58CB048
:100C1000524805F00FFC524D524B2B6003AC00279D
:100C200003971D22002104A805F0EAFA4E4B1B7819
:100C30006A4613724D4E0097012302AA76213000B6
:100C400008F0C6FB0A2002F007F90123984600933A
:100C5000183322007621300008F0C6FB0A2002F08B
:100C6000FBF823786278120213432A681380A37872
:100C7000E278120213432A685380227961790902CB
:100C80002B680A439A80A279E17909020A43DA8043
:100C9000227A617A09020A431A81A27AE17A090268
:100CA0000A435A81227B617B09020A439A81A27B13
:100CB000E17B09020A43DA81227C617C09020A4352
:100CC0001A82A27CE17C09020A435A82227D617D5C
:100CD00009020A439A82A27DE17D09020A43DA826F
:100CE000227E1A76E1236A4613720097E03B02AA3D
:100CF0007621300008F06CFB0A2002F0ADF8434684
:100D00000093073325226A447621300008F06CFBFB
:100D10000A2002F0A1F8637EA27E12022D6813431E
:100D20006B83E37E2B77227F1201637F78218B43D5
:100D30001343EB83E37F1B012B842023E256023312
:100D4000EA5421220021200005F05AFA2800FFF77A
:100D5000DDFE00200CB004BC9046F0BDE8A90010F8
:100D6000F81800201019002030AA0010A00500205B
:100D7000F0B585B005001F4805F05CFB03AC1E4BC9
:100D80001B7823701D4E0027009701232200762137
:100D9000300008F01DFB0A2002F05EF821781848A8
:100DA00005F078FB0097012322007621300008F03F
:100DB0001BFB0A2002F050F82178124805F06AFB6C
:100DC00020781F2420401F239D436CB20443E4B2CB
:100DD00021000D4805F05EFBF5236A46137254723C
:100DE0000097022302AA7621300008F0F1FA05B03C
:100DF000F0BDC04634AA0010F8AA0010A0050020DB
:100E00007CAA0010A8AA0010D4AA001070B584B063
:100E1000114805F00FFB03AA104B1B781370104DFF
:100E20000026009601237621280008F0D1FA0A2036
:100E300002F012F802AC009601232200762128006D
:100E400008F0D2FA0A2002F007F82178054805F0E8
:100E500021FB04B070BDC04634AA0010F8AA0010EF
:100E6000A0050020A8AA0010F0B587B00500214811
:100E700005F0E0FA204B1B786A4613741F4E0027DA
:100E80000097012304AA7621300008F0A1FA0A2075
:100E900001F0E2FF6B46197C194805F0FBFA009758
:100EA000012305AA7621300008F09EFA0A2001F0FD
:100EB000D3FF6B46197D134805F0ECFA6B461C7D99
:100EC0001C239C4323001C242C401C430E4B1D70F0
:100ED00021000E4805F0DEFAF5236A4613735473B9
:100EE0000097022303AA7621300008F071FA07B0B8
:100EF000F0BDC046FCAA0010F8AA0010A005002012
:100F000044AB001070AB00100119002078A600104F
:100F1000F0B587B005001F4805F08CFA1E4B1B7812
:100F20006A4613741D4E00270097012304AA7621F8
:100F3000300008F04DFA6B46197C194805F0AAFA02
:100F40000097012305AA7621300008F04DFA6B4680
:100F5000197D144805F09EFA6B461A7D1F24224025
:100F60001F232C009C4364B21443E4B20E4B1D704B
:100F700021000E4805F08EFAF4236A461373547369
:100F80000097022303AA7621300008F021FA07B067
:100F9000F0BDC0469CAB001098A60010A005002034
:100FA000E4AB001010AC0010F61800203CAC0010B0
:100FB000F0B587B005001E4805F03CFA1D4B1B78C4
:100FC0006A4613741C4E00270097012304AA762159
:100FD000300008F0FDF96B46197C184805F05AFA04
:100FE0000097012305AA7621300008F0FDF96B4631
:100FF000197D134805F04EFA6B461C7D1C239C435B
:1010000023001C242C401C430E4B1D7021000E4855
:1010100005F040FAF4236A461373547300970223D1
:1010200003AA7621300008F0D3F907B0F0BDC0461E
:1010300060AC001098A60010A0050020A8AC00101D
:10104000D4AC0010F518002000AD0010F0B5CE466D
:10105000474680B587B00700314805F0EBF904AE8C
:10106000304B1B783370304C00239846009301338B
:1010700032007621200008F0ABF931782B4805F0DA
:1010800009FA05AD4346009301332A00762120007A
:1010900008F0AAF92978264805F0FCF92B780722F0
:1010A00093433A401A439146224B1F701100224845
:1010B00005F0F0F903AFF2233B704B467B704346DB
:1010C000009302333A007621200008F081F9F423DE
:1010D000337043460093013332007621200008F03C
:1010E00077F93178154805F0D5F943460093013377
:1010F0002A007621200008F077F92978104805F0B9
:10110000C9F92B783B704346009302333A007621AD
:10111000200008F05DF907B00CBC90469946F0BD80
:1011200024AD001048AE0010A00500206CAD0010EA
:1011300098AD001000190020C4AD0010E8AD0010FB
:1011400018AE001070B584B0114805F073F9114B5A
:101150001B786A461372104D00260096012302AADE
:101160007621280008F034F96B46197A0B4805F00F
:1011700091F903AC0096012322007621280008F0A3
:1011800033F92178064805F085F904B070BDC046F2
:101190004CAE001048AE0010A00500206CAD001051
:1011A00098AD001070B584B0114805F043F9114BAB
:1011B0001B786A461372104D00260096012302AA7E
:1011C0007621280008F004F96B46197A0B4805F0DF
:1011D00061F903AC0096012322007621280008F073
:1011E00003F92178064805F055F904B070BDC046F2
:1011F00094AE001098A60010A0050020E8AD0010E5
:1012000018AE001030B587B01F4805F013F903AAD7
:101210001E4B1B7813701E4D002300930133762163
:10122000280008F0D5F804AC01230093073322000E
:101230007621280008F0D8F823781B036278120181
:101240001343A27812091343124D2B60E17809036E
:1012500023791B01194363791B0919430E4B19604C
:10126000A3791B02E27913430C4C23600C4805F070
:1012700011F929680B4805F00DF921680A4805F0B5
:1012800009F907B030BDC046DCAE001064AF0010F5
:10129000A005002004190020FC180020F0180020F0
:1012A00024AF00103CAF001050AF001030B5124B0F
:1012B0001B68D810114A14886100411A0225505F3A
:1012C0004843C0121B111B1B5B431B130421525EBE
:1012D00053439B13C3180A4A13609800C018803008
:1012E0000012084B984203DB074B984202DC30BDEA
:1012F0000448FCE70448FAE7FC1800201019002015
:101300000C19002060F0FFFF3421000070B52C4B59
:1013100018682C4B1B685B102B4A944663449D1045
:101320006D43EC12294A1026915F61430E26945FAB
:1013300063435B005B189B100C24115F09045B186E
:101340000A21545E6D136C43E4100825515F61431C
:1013500049100919891480242402A4466144D288C2
:101360005143C91329D01B131B185801C01A800000
:10137000C0188300C0188300C0184042144BC01826
:1013800017D4400003F030FF020010491623CC5E52
:10139000D3105B43581360430013941014254B5F24
:1013A00063435B13C0181223CB5EC0180011801872
:1013B00070BD03F019FF4200E7E70020F8E7C046E0
:1013C000041900200C1900200006FFFF101900204E
:1013D000000050C3F0B5204B1C6820490D7F1E2330
:1013E000CE5E360520228B5E222288561C4A126869
:1013F0001C4FBC466244A403A41B5343E31A80243D
:10140000E401A4466344DB13504380126A43D212C2
:1014100080242402A4466244424392128020800326
:10142000844662441A24085F504380229201944605
:10143000604480134343D8134043C0110A7E504395
:101440000011181A06D4C8235B05984200DD180065
:101450000013F0BD0020F6E7F0180020101900205E
:101460000C19002000D4FEFFF0B5CE46474680B5EB
:1014700085B0864B1C78602C13D005D8202C12D058
:10148000402C06D1022404E0802C0ED0A02C00D1E8
:10149000903C7F4B1D78052D0AD8AB007D4AD35870
:1014A0009F460424F5E70124F3E70824F1E7042527
:1014B000794B1E78142E08D8B300784AD3589F462B
:1014C0000825F5E71025F3E7012663000133984668
:1014D000700004F06BF90022714B04F0CFF8029019
:1014E0000391404604F062F9029A039B04F0C6F8A7
:1014F00002900391680004F059F90022684B04F04F
:10150000BDF802000B000298039904F0B7F804F04C
:1015100095F98046200004F049F9624A624B04F0D4
:10152000D4F80022614B04F0A9F802900391300036
:1015300004F03CF95B4A5C4B04F0C7F80022584BBE
:1015400004F09CF802000B000298039904F096F84E
:1015500002900391280004F029F9524A524B04F0FA
:10156000B4F8504A524B04F089F802000B0002987C
:10157000039904F083F804F061F9061C4D4B1B78C5
:10158000802B2DD022D8402B2CD00BD9602B0ED104
:10159000494F0CE0022698E7042696E7082694E7D0
:1015A000102692E7002B1FD0202B00D1434F444B35
:1015B0001B78032B1DD0012B25D0C046414B1B7837
:1015C000102B26D89B00404AD3589F46C02B0ED0E4
:1015D000E02B01D13D4FEAE7A02BE8D13C4FE6E7F5
:1015E0003C4FE4E73C4FE2E7FC27BF05DFE73B4F1A
:1015F000DDE7311C381C04F0C7FC011C344804F042
:10160000C8FC8146DAE7311C314804F0C2FC81464F
:10161000D4E700225001801A80008018C00004F036
:10162000D7FC494604F0B5FC071C2D4804F002FF26
:10163000484604F0F5FC04000D00381C04F0F0FCF2
:101640000090019122002B00264804F023FF404621
:1016500004F0E6FC04000D00301C04F0E1FC0090F6
:10166000019122002B00204804F014FF05B00CBCAF
:1016700090469946F0BD0222CCE70522CAE70B222C
:10168000C8E71622C6E70122C4E7C046F6180020C4
:101690000019002030B00010F518002048B00010EC
:1016A0000000E03F66666666666602400000F43F42
:1016B0006666E23FF418002000007A4300007A4298
:1016C00008190020011900209CB000100000A04162
:1016D00000007A440000A0400000FA4200002041CF
:1016E00068AF0010B0AF0010ECAF001010B5174895
:1016F00004F0A0FEFFF7DAFD04F070FC144904F0DA
:1017000048FC04F08DFC02000B00124804F0C2FEFD
:10171000FFF7FCFD04F05CFC0D4904F03AFC04F01A
:101720007FFC02000B000C4804F0B4FEFFF752FEF1
:1017300004F04EFCEA21890504F041FC04F070FC41
:1017400002000B00054804F0A5FE10BDE0B000103B
:101750000000C84228B1001048B1001064B1001068
:1017600010B5FEF7EDFFFFF74FFAFFF795F80020F1
:10177000FFF7FEFA0120FFF769FC1020FFF774FB6A
:101780004020FFF7C5FB1420FFF712FC0320FFF7F2
:10179000D9F810BD10B5FFF705FDFFF727F9FFF7E2
:1017A00035FBFFF7CFFC10BD70B504000D0016002F
:1017B000FFF728FD320029002000FFF797FFFFF711
:1017C00053FE70BD70B5060001248440D0252D065F
:1017D0006C626C61012001F03FFBAC61F0204000C5
:1017E000002101F00DFBAC626420002101F008FB38
:1017F0006B68F34001241C40C8204000002101F028
:10180000FFFA200070BD70B50300012910D00A2630
:101810003C2001249C40D0252D066C62AC61002147
:1018200001F0EEFAAC623000002101F0E9FA70BD7F
:101830002D260A20EDE770B506000C00002505E016
:1018400000213000FFF7DFFF64080135072D06D8BF
:10185000E307F5D501213000FFF7D5FFF4E770BDB0
:1018600070B5050001248440D02636067462B46148
:101870000820002101F0C4FAB4620220002101F026
:10188000BFFA7368EB4001241C403C20002101F0AA
:10189000B7FA200070BD70B506000024002506E0F0
:1018A0003000FFF7DDFFA0400543EDB20134072C07
:1018B000F6D9280070BD000070B505004421FFF77F
:1018C000BAFF00242800FFF7CBFF002807D1012032
:1018D00001F0C2FA0134A4B2024B9C42F2D12000C2
:1018E00070BDC046EE02000070B506000025002065
:1018F00010E052080133DBB2072B09D81400444032
:101900004008E407F5D5742464426040C0B2F0E7B3
:101910000135EDB28D4202D2725D0023ECE770BD5D
:1019200010B584B02C4804F085FD1020FFF74AFF65
:1019300001281BD0CC211020FFF77DFF1020FFF7DE
:10194000BBFF0400254B984215D00100244804F049
:10195000A1FD1020FFF736FFCC211020FFF76BFF11
:10196000BE211020FFF767FF002413E01D4804F09C
:1019700091FD1D4C17E01D4804F08CFD2100184816
:1019800004F088FD1A4C0EE01020FFF784FF01AB35
:1019900018550134082CF7D9092101A8FFF7A4FF35
:1019A000002803D0134C201C04B010BD01AB1A78E2
:1019B0005878000200B2104304F010FB041CF6211A
:1019C000890504F0FCFA04F02BFB02000B000A4826
:1019D00004F060FDE7E7C046A4B10010EE0200008D
:1019E00034B20010F0B1001000007AC40CB2001044
:1019F0000000FAC400803BC550B2001010B51020A2
:101A0000FFF7E0FE012817D00E4804F013FDCC21AB
:101A10001020FFF710FF4E211020FFF70CFF0021D0
:101A20001020FFF708FF00211020FFF704FF7F219F
:101A30001020FFF700FF10BD034804F02BFD034802
:101A4000F9E7C04674B20010F0B1001018FCFFFFB7
:101A500010B51F211A2000F045FB002200211A209A
:101A600000F058FB00211A2000F06EFB07F0C8FCC4
:101A70000A4A1368E021C9010B4009490B60094B70
:101A80001B6809214B4008490B4008490B600023A3
:101A9000136113681B0B0720184010BD00C00440E1
:101AA00000D0044008C004400F00000F08D00440DC
:101AB00010B5012007F0BEFC40B2274B1870431C44
:101AC0000BD0012839D002283BD000280AD0234867
:101AD00004F0B0FC012040422EE0214804F0DAFC82
:101AE000002029E01F4804F0A5FC1B4B00229A5659
:101AF0001D4B0C2A29D81D490B40D20213430C223E
:101B0000934308210B431A490B401A490B401A49C9
:101B10000B4001210B4319490B409343083A1343EF
:101B20000C32934310321343154A13409022520350
:101B30001343144A1360002010BD134804F07AFCCC
:101B4000D3E7124804F076FCCFE7114B114ABC21D1
:101B5000114801F0EBFDC0463419002000B300101D
:101B60008CB20010ACB2001010801F00FF87FFFF86
:101B70003FF8FFFFFFFFBFFFFFFFDFFFFFFF7FFF1C
:101B8000FF7FE0FF38190020C8B20010E4B2001057
:101B90001CB3001030B400103CB3001030B5374C0B
:101BA000A544374804F046FC364B08221A60364AF2
:101BB0000023D3569B01A021C9058C4663443349B9
:101BC0001960694659603249996032490968D9609B
:101BD000002151568B01A022D205944663441A6914
:101BE00080235B0414001C401A42F3D12A4B0822C4
:101BF0001A602A4B9C420ED863006A46985A04F039
:101C0000EDF9274904F0DBF9011C281C04F0BCF9AC
:101C1000051C0134EDE7234B1B68DB05FBD501E018
:101C2000204BDB681F4B9B68DB05F9D51E49281C40
:101C300004F0AFF904F0F4F902000B001B4804F0C3
:101C400029FC104B04221A60164B1B68DB05FBD5E0
:101C5000144B5C682404240C200004F0BFF91049E4
:101C600004F0ADF904F0DCF902000B00210010488B
:101C700004F010FC0F4B9D4430BDC046ECD8FFFF74
:101C80008CB3001000E00440341900200CC0044064
:101C9000881300003819002000F00440861300006B
:101CA0003333533A00C0044000409C45D8B3001081
:101CB000FCB3001014270000F0B583B005000C0041
:101CC00011002A4804F0E6FBAB6920210A001A4003
:101CD000194244D1210000232EE06B4607331870CF
:101CE000100003E01E782E600130013300281DD162
:101CF000AE69B606FCD4F5E76B4607330D261E70B9
:101D0000160003E01F782F6001360133002E21D129
:101D1000AF69BF06FCD4F5E71E782E6001300133B1
:101D2000002803D1AE69B606FCD4F5E70B780D3B6D
:101D300058424341DBB2013108780028C4D0002B5F
:101D4000CBD10B4BEB185E4273415B00094E9B5F9E
:101D50008342D1D06B46073318701000E0E7FA20B9
:101D6000800001F079F803B0F0BDC0464CB400101B
:101D70000080FCBF3C190020F0B583B005000C00CA
:101D800011002A4804F086FBAB6920210A001A40A2
:101D9000194244D1210000232EE06B46073318700E
:101DA000100003E01E782E600130013300281DD1A1
:101DB000AE69B606FCD4F5E76B4607330D261E70F8
:101DC000160003E01F782F6001360133002E21D169
:101DD000AF69BF06FCD4F5E71E782E6001300133F1
:101DE000002803D1AE69B606FCD4F5E70B780D3BAD
:101DF00058424341DBB2013108780028C4D0002B9F
:101E0000CBD10B4BEB185E4273415B00094E9B5FDD
:101E10008342D1D06B46073318701000E0E7FA20F8
:101E2000800001F019F803B0F0BDC04660B40010A6
:101E30000080FCBF3C190020F8B5284804F0FAFAED
:101E4000022000F099F9D0263606042575629627FF
:101E5000BF01234C3900200000F07CFA0221002051
:101E600000F040F90221012000F03CF93900200087
:101E700000F02EFA216BC0231B02194080235B0166
:101E8000184A1A431160E26A602151406E220A40EA
:101E900015490B431A60E16A10220A401A60B561C5
:101EA000FA20800000F0D8FF756133691D420CD123
:101EB00002210E4804F0EEFA0D4804F0BBFAFA20B5
:101EC000800000F0C9FF0020F8BD0221094804F09D
:101ED000E1FA094804F0AEFAF1E7C04674B4001024
:101EE00000400340304003402C400340BCB400108D
:101EF000F0B4001010B5001044B5001070B52448BF
:101F000004F098FA234C200000F0D2F9E1214902B4
:101F1000200000F01FFA0221002000F0E3F8022167
:101F2000012000F0DFF8216BC0231B021940802341
:101F30005B01194A1A431160E26A602151406E2226
:101F40000A4016490B431A60E16A10220A401A60DF
:101F5000D0252D060424AC61FA20800000F07CFF1F
:101F60002B691C420CD102210D4804F093FA0D4854
:101F700004F060FAFA20800000F06EFF002070BDCF
:101F80000221094804F086FA084804F053FAF1E700
:101F900064B5001000400340304003402C40034033
:101FA000BCB40010F0B4001010B5001044B500101F
:101FB00000B583B00EE00F4B9B69DB06FBD40D4BE5
:101FC0001B680B7001320131002AF4D06B46D879BE
:101FD00004F0F6F9074B9B6910210A001A401942D8
:101FE00002D16B46D91DEFE7034B802252031A60E2
:101FF00003B000BD0040034080E200E030B583B094
:1020000018E0264B9B69DB06FBD4244B1B680B7046
:1020100001320131002AF4D06B46DD791F4B9B69F8
:1020200020210A001A4019420ED0C0461C4A1388CB
:1020300001331380194B9B6910210A001A40194281
:1020400029D16B46D91DE5E7164B00215B5EAB42FB
:1020500003D06B46D91D0D701AE06B46D91D0D23B8
:102060000B70100008E00D4B9B699B06FBD40C78AD
:102070000A4B1C60013001310028F4D0E9E7074B1E
:102080009B699B06FBD40878044B18600132013130
:10209000002AF4D0CAE703B030BDC0460040034078
:1020A000E41800203C19002010B50100142001F0B4
:1020B000FDFC0121142001F0F9FD0121142001F0A3
:1020C000DDFC064B10229A635B6B28321A400449F0
:1020D00080235B010B431A6010BDC04600400340E3
:1020E0003440034010B58300084A944663441C689A
:1020F00040226240C02414408022520113431C60DD
:10210000C000034B9C466044416010BD04C00140C8
:102110000040014080000B4B9C46604400290DD0DC
:102120000823002A0CD004221343026853400C22D7
:102130001340802252011043036070470023F0E7F0
:102140000022F1E704C00140002909D08000094BBA
:102150009C46604480239B011843402303607047E2
:102160008000044B9C466044C0239B0118434023DD
:102170000360F4E704C0014010B501238340D0227E
:102180001206936293610521FFF7ACFF10BD0000BA
:10219000EFF3108072B6034B1B68002BFBD0BFF32C
:1021A0005F8F70472C0100D0BFF35F8F024B00227E
:1021B0001A6080F3108870472C0100D0F8B5060033
:1021C0000C001500FFF7E4FFE308F718F15C0722A5
:1021D0002240012393400B4205D1DBB20B433B70FD
:1021E000FFF7E2FFF8BD2100280001F0BDFAF0B5CD
:1021F00083B00600019114001F00FFF7C9FFBC4225
:102200000ED8E308F518F35C0721214001228A402B
:102210001A4201D00134F2E7D2B21A432A7001E027
:1022200001246442FFF7C0FF002C02DB200003B052
:10223000F0BD019B002BF9D0089801F095FA000041
:10224000034B1B6802201840431E9841C0B27047E0
:1022500000C0064000231F2B08D8054A9A18920098
:10226000BFF35F8F002111600133F4E77047C04670
:1022700040000034054A1078431CDBB21370172B62
:1022800002D9130010221A707047C046C8040020FB
:1022900000B583B00100044B00931F2318220348AC
:1022A000FFF7A5FF03B000BDACB50010F013002090
:1022B000054B984204D08022D203044B1A60704729
:1022C00080221204F9E7C0460080034000E000408D
:1022D00070B504000D00062001F060FBC00029006D
:1022E00002F082FFC60908D00E4B9E4217D87F230A
:1022F000184001303500460800E001256562A662FD
:102300002C3480208001044300232360062001F048
:1023100045FB8000A901891902F066FF70BD002607
:10232000014DEBE7FEFF0000FFFF0000002909D090
:102330000A22064B9C466044434258414000044BED
:10234000C252704780225200F3E7C0460080FCBFB3
:102350003C19002070B505000C00062001F01EFBA2
:10236000002829D0164B9D4227D08022D203154B3E
:102370001A60154B1A60154B9B6811009943FAD1EE
:1023800000212800FFF7D2FF21002800FFF7A0FF5F
:102390002C002C34E96A60224A406E2111408022D0
:1023A0005201224311600A4B2B6380239B0123437C
:1023B00010221A600323AB6470BD80221204D6E79A
:1023C0000080034000E0004000F0004000C00040FA
:1023D0000103000070B505000C00080000F0CCFD02
:1023E000200000F0AFFE0849200000F0EFFDFFF7ED
:1023F00041FF064B9C466044800068602C75A40039
:10240000034BE55070BDC046192700104000003452
:102410009C1800200A4B1A68EFF3108172B61368FB
:10242000002BFCD0BFF35F8F054B1B68BFF35F8FA2
:1024300000221A6081F3108840BF002000217047FD
:10244000B418002010B5002922D003681B7B9942E4
:102450001ED8174B9C466144090183689C46614421
:102460000C684968002A19D003681B7B9A4215D86A
:1024700083680F488446624412019A1810685368B2
:10248000020001208B4201D80ED00020C0B210BD46
:10249000084B094A3B21094801F048F9054B064A17
:1024A0003B21064801F042F9A242EFD8EDE7C046D1
:1024B000FFFFFF0F14B60010E4B80010DCB50010E9
:1024C00010B500291ED0037B99421BD84B005B1826
:1024D000033B0468A4466344002919D0002A1DD098
:1024E000914221D0002A25D0047BA24222D8046840
:1024F00050008018033820188170197800291FD1E6
:102500001A7010BD104B114A6921114801F00EF9E3
:10251000104B114A70310E4801F008F90F4B0E4A6A
:1025200071210B4801F002F90D4B0B4A722108484A
:1025300001F0FCF8044B054A6921054801F0F6F862
:1025400041701A70DDE7C04648B60010A4B800100C
:1025500064B60010B0B60010B0B80010BCB60010E1
:10256000C8B6001070B506000D001400002914D084
:10257000002A14D0806873689847002806D022008B
:1025800029003000FFF79CFF280007E02A00210007
:102590003000FFF795FF200000E0100070BD08003C
:1025A000FCE70000F0B583B00500009201930AAB90
:1025B0001C780BAB1F78002C26D003685A7B944202
:1025C00007D10123002B19D1002C3BD1200003B0EF
:1025D000F0BD002C0CD01A7B944209D81A68630015
:1025E0001B19033BD3189B78002BEBD00123E9E7A1
:1025F0003E4B3F4A69213F4801F098F83E4B3F4A25
:1026000065213F4801F092F803689C7B002CDBD0E9
:1026100012D01A7B94420FD862001219033A19683B
:102620008C46624451789973002900D1D9730023F4
:10263000937053701370C7E72C4B2D4A69212D48B6
:1026400001F074F8002C3AD02B681B7B9C4236D8E2
:102650002C4BE3181B01AA6894466344009A1A6045
:10266000019A5A60089A9A60099ADA602E68002CDA
:102670002BD030D0337B9C422DD863001B19033BF9
:1026800032689446634400229A705A701A70717BC3
:1026900022003000FFF766FF7073844200D095E798
:1026A000287D009A019B00F0D9FC061E01D0002F66
:1026B00017D00C9B002B00D188E71E7086E7124BC9
:1026C000124A3B210E4801F031F8114B114AA62164
:1026D000084801F02BF8054B054A6921054801F02F
:1026E00025F82868210000F017FFE2E748B600103F
:1026F000A4B8001064B60010E0B600101CB90010B9
:10270000DCB50010FFFFFF0F14B60010E4B8001096
:10271000D8B50010C4B80010F0B5DE4657464E4696
:102720004546E0B58BB00990002308938200B34B77
:10273000D658370052E0B24BB24A3D21B24800F0C1
:10274000F5FFB24BB24A3B21B24800F0EFFF00293F
:1027500001D1002869D10021404600F0D3FEA042FB
:1027600019D12A686B6806920793AB689846EB68A4
:102770009A464346002B14D0002C18D03B681B7B94
:102780009C4214D8631EFA68D35C08931B0218435A
:102790003861002015E0A04BA04A8C219D4800F034
:1027A000C5FF9F4B9D4A90219A4800F0BFFF974B71
:1027B0009C4A4021974800F0B9FF00239A4698466A
:1027C00000207B68BFF35F8F00221A6086F31088B9
:1027D0004346002B32D1002800D107E100F0D8FB9E
:1027E00002000B1EA7DB00200021069007917868ED
:1027F000EFF3108672B601680029FCD0BFF35F8F3B
:10280000396888464C7B002CD7D09AD0097B8C4203
:1028100097D8854965182D01B9688C4665442868A4
:102820006968801A9941002991DD2A686B680998C6
:1028300000F014FC00239A469846C2E7089B1B024E
:102840002343994651461800C04705000E007A6898
:10285000EFF3108B72B6136859424B41D9B2002B7B
:10286000F9D1BFF35F8F002E26DB002E52DD3B69CE
:10287000002B53D04B4572D100F08AFB02000B1E97
:1028800073DB0100180052197341984202D804D139
:10289000914202D901225242D317002B6BDB002157
:1028A00004910131039102945146019141460091F6
:1028B0003800FFF777FE49E03B69002BD5D04B4548
:1028C0001CD1069A079B10001900521BB341994274
:1028D00002D804D1904202D901225242D317002BD0
:1028E00012DB0021049101310391029451460191C0
:1028F000414600913800FFF755FE27E04B4B474A11
:102900009F21444800F012FF3D4B3E4A3D213E4886
:1029100000F00CFF002E01D1002DA8D13A68002C48
:1029200045D0537B9C422CD1012100293FD1D37B40
:10293000002B42D1D473002C52D03B681B7B9C42AD
:102940004ED8FA68013C135D0133135500233B61F7
:102950007A68BFF35F8F13608BF310883EE7334BC9
:102960002E4AA2212B4800F0E1FE254B254A3D21AD
:10297000254800F0DBFE224B224A3D21224800F090
:10298000D5FE002C0DD0137B9C420AD863001B1986
:10299000033B1068844663449B78002BC5D001211B
:1029A000C3E7234B234A6921234800F0BFFE234B92
:1029B000234AF721204800F0B9FE002B0AD0117BF2
:1029C0008B4207D85900CB18033B11688C466344EF
:1029D0005C70AFE7164B174A6921174800F0A6FE56
:1029E0000A4B104A40210B4800F0A0FE0BB03CBC43
:1029F00090469946A246AB46F0BDC0469C180020C2
:102A000008B700108CB8001024B7001014B60010DE
:102A1000E4B80010DCB500106CB7001034B9001039
:102A200084B70010F0B80010FFFFFF0F90B7001040
:102A300048B60010A4B8001064B60010CCB700105F
:102A4000D4B8001010B50A4B5B68002B04D00A21E3
:102A5000084800F097FB10BD054C2300064A1021E2
:102A6000206800F06FFC03212000FFF7B3FCEEE7C5
:102A7000CC040020B41800204524001010B5064BEB
:102A80005B68002B01D0044810BD044B044A5C2154
:102A9000044800F04BFEC046CC040020F0B7001004
:102AA00004B90010DCB50010F0B5DE4657464E46BE
:102AB0004546E0B58BB0804616001F00149B9A4631
:102AC000159B994616AB1B789B461F2302AA94467A
:102AD000634400221A7032E0002809D0424612688E
:102AE000127B904204D8421E4146C9688A5C48E085
:102AF000434B444A4021444800F018FE0798002BFD
:102B000075D05B46002B72D04946D04704000D00BB
:102B100003000B4300D171E0002946DB00F038FAD6
:102B200006000F1E55DB36196F41B94202D804D199
:102B3000B04202D901267642F717002F4FDB4346F9
:102B40005A68EFF3108472B6136859424B41D9B2F8
:102B50000791002BF8D1BFF35F8F1F3302AA944671
:102B6000634404930023039302934B46019353461B
:102B7000009332003B004046FFF714FD031EABD12B
:102B8000020041464968BFF35F8F00250D6084F362
:102B90001088002B29D01F2302A98C4663441B7880
:102BA000002BABD112021043A9E732003B00361BC9
:102BB000AF41BB4202D804D1B24202D901267642CB
:102BC000F717002FBBDA114B114A3D21114800F0D5
:102BD000ADFD0E4B0E4A3D210E4800F0A7FD0B4BFC
:102BE0000B4A3D210B4800F0A1FD012040420BB0F3
:102BF0003CBC90469946A246AB46F0BD0798F6E726
:102C000014B60010F0B80010DCB5001008B70010C2
:102C10008CB8001024B70010F8B504004268EFF338
:102C2000108572B6136858424341D8B2002BF9D1CF
:102C3000BFF35F8FCBB22268567BB3421BD101201A
:102C4000002847D0206988422BD0090AC9B2002B3E
:102C50002DD02068007B834229D8581EE668305C5E
:102C600088422AD000206368BFF35F8F00221A6079
:102C700085F31088F8BD002B0DD0167BB3420AD81F
:102C80005E00F618033E1768BC466644B678002E10
:102C9000D6D00120D4E7124B124A6921124800F025
:102CA00045FD124B124AFE21124800F03FFD124B27
:102CB000124A40210F4800F039FD1900100000F0C1
:102CC0002BFC0028CFD106210D4B094AFF310948C2
:102CD00000F02CFD23698B42C5D100232361C2E79C
:102CE00048B60010A4B8001064B6001014B8001064
:102CF00050B90010DCB5001014B60010F0B8001088
:102D000038B80010F0B587B006000F00FDF7ABFA39
:102D100000281FD106246442E517A4197D41BD4255
:102D200002D803D1B44201D900240025002D14DBC0
:102D30000494059500F02CF902000B1E13DBA41A75
:102D40009D41002D17DC14D03000390000F02CF923
:102D500007B0F0BD234800F007FD234B234A3D2177
:102D6000234800F0E3FC204B204A3D21204800F09E
:102D7000DDFC002CE8D0FFF781FE002302930193D5
:102D80001C4B0093049A059BFFF78EFE002818DA6F
:102D9000DAE7002300E00023002BD5D1164B1A6898
:102DA000EFF3108172B61368002BFCD0BFF35F8F76
:102DB000114B1B68BFF35F8F00221A6081F31088EC
:102DC00020BF0499059A0D4B5B6A9A42E3D80B48E1
:102DD000806A884203D29A42DBD00123DCE70123D8
:102DE000DAE7C0463CB8001008B700108CB80010F5
:102DF00024B7001015240010B4180020004005402E
:102E0000F8B504000D0000F0C3F802000B1E10DB43
:102E100020002900801859418B4202D804D18242F7
:102E200002D901204042C117002908DBFFF76AFFE1
:102E3000F8BD064B064A3D21064800F077FC034BDF
:102E4000034A3D21034800F071FCC04608B700105A
:102E50008CB8001024B7001010B5FA22920000239D
:102E6000002103F06FF8FFF7CBFF10BD70B584B001
:102E700005000C00FFF702FE002302930193194B9B
:102E800000932A002300FFF70FFE061E12DC164BEC
:102E90005B6A9C4209D8144A926AAA4208D29C42B0
:102EA00001D0012002E0002000E0002004B070BD4D
:102EB0000120FBE720BFFFF7E1FD3100FFF7ACFE8B
:102EC000094B5B6A9C4209D8074A926AAA4207D218
:102ED0009C4201D00120E9E70020E7E70020E5E778
:102EE0000120E3E7152400100040054070B5EFF322
:102EF00005833F2018401038EFF3108472B6194B49
:102F00001B68002BFBD0BFF35F8F012319008140AA
:102F1000154A5163154A12781500C5402B4214D04A
:102F2000114B5D6A8300124E9B599D4206D383006C
:102F3000104D5B598A430D490A7007E00A4A031D88
:102F40009B0099589950002300E00023BFF35F8F46
:102F5000044A0021116084F31088002B00D09847A8
:102F600070BDC046280100D000400540EC1800208C
:102F7000C0180020E012002010B50100024A0348EA
:102F8000FFF71CF910BDC04668B90010E918002011
:102F9000044B5B6A034A906A1900536A9942F9D15B
:102FA0007047C04600400540074B5B6A8B4204D225
:102FB000054B5B6AFAE7044B5B6A8B4203D1024B19
:102FC0009B6A8342F7D370470040054070B5040008
:102FD0000D00EFF3108672B61B4B1B68002BFBD065
:102FE000BFF35F8F002D1CD0200000F057FD174B62
:102FF00083420BD01900200000F058FD0121200071
:1030000000F03CFD0123A340114A1360A400114BC2
:10301000E550BFF35F8F0C4B00221A6086F31088D7
:1030200070BDA2000B4B0021D1500122A2400A49E1
:103030000B7893430B700549200000F061FD0021DF
:10304000200000F01BFDE4E7280100D0ED2E001069
:1030500038600540E0120020EC180020F0B5DE4694
:1030600000B584B00400150001921E000293FFF722
:103070008FFF03958E4202D84ED185424CD9EFF393
:10308000108B72B6274B1B68002BFBD0BFF35F8FF2
:10309000254A17780125A540EBB23B431370234B1B
:1030A0005D63221D92000199D150A200204902982F
:1030B00050501B6A2B4212D11C4B1B6C2B4208D068
:1030C0000020BFF35F8F174B00221A608BF310882C
:1030D00023E0184B184AC121184800F027FBFFF7DE
:1030E00057FF8E4214D802D1039B834210D80E4B57
:1030F0001B78BB420ED00D4B1D625D631F20044048
:103100000123A3400E4A1360074B1F701E38D8E7F7
:103110000020D6E70120D4E7012004B004BC934688
:10312000F0BDC046280100D0EC180020004005404A
:10313000C01800208CB90010F4B90010B0B900100C
:1031400080E200E010B5EFF3108472B60A4B1B6802
:10315000002BFBD0BFF35F8F01238340074A13622C
:1031600007490A789A430A70BFF35F8F024B002227
:103170001A6084F3108810BD280100D0004005407B
:10318000EC180020024B9C466144890001607047A6
:103190004000003470B504000D00FFF76BF801002B
:1031A0002000FFF7EFFFFF2323716571BFF35F8FEF
:1031B00070BD10B50021FFF7EDFF10BD10B5FF2168
:1031C000FFF7E8FF10BD0000034B9C4661448900F7
:1031D0000160BFF35F8F70474000003410B50400FA
:1031E0000120FFF755F801002000FFF7EDFF10BDAB
:1031F00010B500291ED0037B99421BD84B005B18E9
:10320000033B0468A4466344002919D0002A1DD05A
:10321000914221D0002A25D0047BA24222D8046802
:1032200050008018033820188170197800291FD1A8
:103230001A7010BD104B114A6921114800F076FA3E
:10324000104B114A70310E4800F070FA0F4B0E4AC5
:1032500071210B4800F06AFA0D4B0B4A72210848A5
:1032600000F064FA044B054A6921054800F05EFA53
:1032700041701A70DDE7C04648B60010CCBB0010A4
:1032800064B60010B0B60010D8BB0010BCB6001079
:10329000C8B6001070B506000D001400002914D047
:1032A000002A14D0806873689847002806D022004E
:1032B00029003000FFF79CFF280007E02A002100CA
:1032C0003000FFF795FF200000E0100070BD0800FF
:1032D000FCE7000010B50023437301338373037BC5
:1032E000C3730123027B9A4214D9002B0CD0027BBA
:1032F000934209D85A00D218033A01688C466244B6
:103300000133DBB25370EDE70B4B0C4A69210C48DB
:1033100000F00CFA002A09D0924207D80168530045
:103320009A18033A8A180023537010BD024B034ABF
:103330006921034800F0FAF948B60010CCBB001030
:1033400064B6001010B5017342608360FFF7C2FFDE
:1033500010BD000070B50400081E00D170BD00292A
:1033600034D0237B994231D84B005B18033B226851
:10337000944663445A78002AF0D02DD0237B9A4299
:103380002AD853009B18033B21688C4663445D7820
:1033900000215970002825D0237B984222D8430071
:1033A0001B18033B21688C466344002159700100BF
:1033B0002000FFF76FFF060029002000FFF7CAFF7B
:1033C000020031002000FFF765FFC7E7084B094AFC
:1033D0006921094800F0AAF9054B064A6921064807
:1033E00000F0A4F9024B034A6921034800F09EF95A
:1033F00048B60010CCBB001064B6001070B50500D4
:103400000C001600002928D02DD0037B99422AD821
:103410004B005B18033B0268944663445A78002AC9
:1034200027D19A78002A2AD11978FFF793FF030051
:10343000002E03D0EA7B002A27D1EC73002B37D172
:10344000002C49D02B7B9C4246D82B6861000C197C
:10345000033C1C190023637070BD224B224A3821A3
:10346000224800F063F9224B224A6921224800F0E9
:103470005DF9224B1C4A3A211C4800F057F9204BB9
:10348000194A3B21194800F051F9002A0AD0297B3A
:103490008A4207D851008A18033A29688C46624448
:1034A0005470CAE7124B134A6921134800F03EF9E1
:1034B000002B0BD02A7B934208D843001B18033BF8
:1034C0002A689446634400229A70B9E7084B094A77
:1034D0006921094800F02AF9054B064A6921064886
:1034E00000F024F918BB0010ECBB001020BB00104A
:1034F00048B60010CCBB001064B6001058BB0010DA
:1035000080BB001070B504000A00457B2900FFF75E
:1035100075FF6073280070BD70B50400002966D087
:10352000437B8B420ED0002911D0037B99420ED8E9
:103530004B005B18033B0268D0188378002B0CD13A
:10354000002055E00121FFF7DDFF012050E0294B6D
:10355000294A6921294800F0E9F8002B1FD0227B75
:1035600093421CD825685A00D318033BEA18EB5C39
:103570008B421AD0002B1BD0227B934218D85A00C2
:10358000D318033B2268D21853788B4216D0002BF5
:10359000F0D11B4B1B4A67211B4800F0C7F8154BA5
:1035A000154A6921154800F0C1F84378137007E007
:1035B000104B114A6921114800F0B8F84378537054
:1035C00000238370437001222000FFF717FF0200E1
:1035D000617B814205D02000FFF75CFE6073012013
:1035E00006E00A4B074A6D21074800F09FF80020CB
:1035F00070BDC04648B60010CCBB001064B60010C9
:10360000A4BB001000BC001020BB0010ACBB00101D
:1036100070B5264B264A1A60264B274A1A60274B5C
:103620009A68254B9343FAD1254C264B9C4202D2F3
:1036300008CC9847F9E700F031F91E4B224A1A608E
:103640001E4B9B68DB43DB01FAD1204B40229A677B
:103650005A671A67DA661E4C03E02000FFF7A9FDDF
:1036600008341C4B9C4206D26379002BF5D0200015
:10367000FFF7A4FDF4E7184CA168184DC0222800FC
:1036800002F0C4FDA560FCF7EEFD002800D000BEEE
:10369000FEF7E0FD00F096FBFFF7D4F9104C01E0D7
:1036A00008CC98470F4B9C42FAD370BD00E0004015
:1036B000BFCDFBFE00F00040FE7F3C0000C000409C
:1036C000F80D0020080E0020FFFFFF0100F0014070
:1036D000E80D0020F80D002000ED00E000000020C3
:1036E000080E0020100E002000BEFDE703000A4A6D
:1036F0001268002A08D0084A1068C318074A9A427C
:1037000006D3054A13607047034A05491160F2E782
:1037100001204042F7E7C04690140020000004203A
:10372000081C002010B5FFF7DFFF000010B582B0C5
:103730000C001900002A0CD0084B002A0BD0019273
:10374000009323000200064802F0A4FE0120FFF7C8
:10375000CBFF044BF1E7034AF1E7C04618BC001069
:1037600028BC00107CB100100FB400B583B008482D
:1037700002F060FE049B002B07D005A90191180000
:1037800002F066FE034802F055FE0120FFF7ACFF91
:1037900058BC001038AF0010F8B5DE4657464E460C
:1037A0004546E0B505000F0092461E000A9B9E426A
:1037B0004ED3330E994636020A9A0023300049460A
:1037C00001F054FD80466C006419A4002E4B9C4609
:1037D00064446368834200D260602B1FDBB29B4667
:1037E000012B3BD9C0239B012343802212011A6085
:1037F000AB00264A9958002905D0506901F0F4FC25
:1038000001300138FDD153465A0123685A40E02364
:103810001A4080235B0123431A605A46012A28D9A3
:1038200080239B012343802212011A604346636078
:10383000424600233000494601F018FDAD00134B0D
:10384000585101203CBC90469946A246AB46F8BD73
:103850000F4B104A2D211048FFF768FF012FC1D1EF
:10386000C0239B01234303221A60A368DB07FCD516
:10387000C9E72168794003220A401A60A36801223F
:10388000BA401A42FAD0CBE700800040F41300207F
:1038900068BC0010C0BC00107CBC001030B583B008
:1038A0000C2000F027FBFEF7CBFC00280DD00023F6
:1038B000092B05D899002D4A2D4888500133F7E788
:1038C0002A4B2C4A5A6203B030BD2B4B00229A6718
:1038D00000F07EFB294B01221A60274B5B6C012B09
:1038E000FBD1274B03221A60234B9B6B012BFBD18F
:1038F000022400940533234A0121234800F06EFA84
:1039000000940523214A0121214800F067FA214B48
:103910000093002202210420FFF73EFF1E4D009578
:103920002B00002201210520FFF736FF104C0094E8
:103930002300002200210720FFF72EFF0094230020
:10394000002200210820FFF727FF0A4B00932300E5
:10395000002200210920FFF71FFF00952B00002205
:1039600000210620FFF718FFADE7C046F413002042
:10397000006CDC021BB70000008000403CB000403F
:1039800030B00040002F68590080024000389C1C75
:1039900000C00240001BB700405973078000014B74
:1039A000C0587047F4130020074B9B68103080000C
:1039B0001950BFF35F8FBFF35F8F044B0021196075
:1039C00082F310887047C04600ED00E0240100D06B
:1039D00010B5091A04394808090B05D14005400DF6
:1039E000044B184380B210BD034B044A8C21044899
:1039F000FFF79CFE00E0FFFFD0BC0010B0BE00103F
:103A0000E0BC001010B5091A04394C08090B08D1A4
:103A10004905490D064A11430180064B2343438063
:103A200010BD054B054A94210548FFF77FFEC046AF
:103A300000F0FFFF00F8FFFFD0BC0010BCBE00107C
:103A4000E0BC001001238340034A10681840431E65
:103A50009841C0B27047C04600E100E0002904D0A0
:103A6000034B1860034B18607047034B1860FBE76B
:103A700080E200E000E100E080E100E010B5012319
:103A800083401800FFF7EAFF10BD000001238340C8
:103A9000014A13607047C04600E200E0024B9B6899
:103AA00010308000C058704700ED00E070B5040091
:103AB0000D00EFF3108672B60C4B1B68002BFBD089
:103AC000BFF35F8F2000FFF7E9FF094B984201D059
:103AD000A84205D1320029002000FFF765FF70BD24
:103AE000044B054A70210548FFF720FE240100D051
:103AF000CD01001020BD001094BE0010E0BC0010ED
:103B0000F0B5CE46474680B583B006000D00EFF312
:103B1000108872B6574B1B68002BFBD0BFF35F8F2A
:103B2000554B9A6834001034A300D758534B9F422A
:103B300007D0AF4200D19BE00197514BFB1A2F2BCE
:103B400009D9424639003000FFF72EFF03B00CBC04
:103B500090469946F0BD3000FFF774FF8146002182
:103B60003000FFF78BFFBFF35F8FFCF77CFB002873
:103B700001D0844219D10123019C9C432300404978
:103B80005B1A5B4148495943090D49B20022A368B9
:103B9000AB4212D00622A256002A0DDB53009B181E
:103BA0009B002200364CE418F1E72021354B364AC1
:103BB000FF313648FFF7BAFD2200AB4251D106254E
:103BC0006557002D39DB6B005B199A002C4B9B1855
:103BD0009A68A260DA79E27106229A56A2719B79FC
:103BE0005BB2002B10DABD200002A0806B005B19D5
:103BF0009B00234AD318264A1178997115704946BB
:103C00003000FFF73BFF9CE7201D6B005B199B001A
:103C10001B4A9B181A1D9B88D90A1C2907D15905D4
:103C20004915023149005118FFF7D2FEDDE7194B63
:103C3000194A9A211548FFF779FD00280CD1002A6E
:103C400008D0FF239371154B9380114B1A78A27102
:103C50001970D4E7094FF8E7201D1149FFF7D2FE8C
:103C6000CDE7AA210F4B084A49000848FFF75EFD3F
:103C7000024F66E7240100D000ED00E0CD01001006
:103C8000F404002034BE0010E4BE0010E0BC0010BC
:103C9000EA1800201CBE0010D4BE001000BDFFFFBB
:103CA0002E05002058BE0010AAAA000010B503235C
:103CB00004009C43064A9446644422681840C000AD
:103CC000FC3383409A43130081400B43236010BDB3
:103CD00000E400E0F8B50400012606432D4BF31A7A
:103CE0002F2B28D8FCF7BFFA00282BD0EFF3108732
:103CF00072B6294B1B68002BFBD0BFF35F8F2300EC
:103D0000244D5B1B5B412E4D5D432D0D6DB2234B4E
:103D10009B6880001B58B3421BD00022032A32D874
:103D200053009B189B001B49CB189B795BB2AB429D
:103D30001FD00132F2E77221194B1A4AFF311A489B
:103D4000FFF7F4FCBA21194B164A49001648FFF751
:103D5000EDFC124B9B68164A1A50164B1A78A2714A
:103D60001D70BFF35F8F0C4B00221A6087F3108821
:103D7000F8BD08005300991889004118FF268E717C
:103D80000D4A8A80E9E786210C4B064AFF31064836
:103D9000FFF7CCFCF4040020240100D000ED00E08B
:103DA00060BE0010F8BE0010E0BC001088BE00101D
:103DB000CD010010EA18002000BDFFFFA4BB0010D9
:103DC000AAAA000010B500241F2C05D880212000CD
:103DD000FFF76CFF0134F7E710BD0000F0B5CE46E9
:103DE00000B504000E0091461F000C2001F0FCF904
:103DF000050043011B1A9901C91AC9000918890154
:103E0000484601F0F1F90200103A98235B009A420B
:103E100033D87B1E062B36D8069B013B062B32D8A7
:103E2000069B9F4235D34B461A09AA4237D33F041B
:103E3000069B1D032F432368002B36DB234B9C423C
:103E400041D080256D01224B1D60224B1D60224A0E
:103E500092682B009343FAD12660A060221DC023F4
:103E60009B01134321221A602268002AFCDAE760D2
:103E700008221A6004BC9146F0BD184B184A16215E
:103E80001848FFF753FC184B154A19211548FFF73E
:103E90004DFC164B124A1F211248FFF747FC144BEA
:103EA0000F4A22210F48FFF741FC22683F231340AD
:103EB000B342C3D1A3681B051B0D8342BED1E36887
:103EC000002FBBD1D6E78025AD01BCE700C0024082
:103ED00000E0004000F0004000C0004014BF0010AF
:103EE000F0BF001030BF001070BF0010BCBF00104A
:103EF000D4BF001080239B000343014AD362704764
:103F000000800540024B1A68024B5A607047C04659
:103F1000941800200080054010B50200144B80204A
:103F2000C0051860134B1448186000291BD0134BB0
:103F3000E021C9041960002A00D132325001801AF0
:103F40008000801800010E4B186080235B049842AB
:103F500002D30B4B0B4A1A60FFF7D4FF074B8022AA
:103F6000D2051A6010BD024BE021C9041960E2E7D6
:103F700000B0054008200140FCFF010000A0054002
:103F800094180020FFFFFF0010B5030010000C4A3A
:103F90008024E4051460002B0DD001221343094A4C
:103FA000094CD461094C5C40146251629362002157
:103FB000FFF7B2FF10BD034B0022DA61F7E7C046FE
:103FC00000B0054000800540D3C007B02D3FF84F3A
:103FD000064BAA2212011A602F22DA60044B054A0E
:103FE0001A60024B5B68002BFBDA7047004002400E
:103FF0000060024000B0FA00704710B5002802D0FF
:104000000B684968984710BD010000200A681378C2
:10401000303BDBB2092B08D883001B185B00501C17
:1040200008601078C0183038F0E77047F0B5DE4609
:1040300057464E464546E0B583B093461F000C9B5D
:104040009A460D9C0E9B99460F9B9B0703D0B84642
:104050000F00060022E00192A34688464E46B9466C
:104060000700B44207D2551C4B4641462020B847B2
:1040700001342A00F5E73D004F465C46019B9B4614
:10408000B1464646B84637002E0007E0013C551CB5
:104090005346185D43463900B0472A00002CF5D13D
:1040A00035003E0047460F9B9B0707D4100003B026
:1040B0003CBC90469946A246AB46F0BDB0464E4643
:1040C000B9462F005D46531BB342EFD2541C4B46FA
:1040D00041462020B8472200F5E7F0B5CE464746D6
:1040E00080B585B0944698460C9D0D9C0EAB1B7810
:1040F0009946109A119B129EB7071BD4002B08D02B
:10410000F70706D54F46002F02D10C37374200D0B3
:10411000013B944208D21F2C06D830272F5501347A
:10412000F7E730272F550134F70703D59C4201D21A
:104130001F2CF6D9F70615D5770505D4002C03D02A
:10414000944224D09C4222D00F9A102A2BD00F9A4E
:10415000102A30D00F9A022A35D01F2C02D83022D4
:104160002A5501341F2C05D84A46002A31D02D2269
:104170002A55013403960293019400954346624602
:10418000FFF754FF05B00CBC90469946F0BD621E87
:10419000012C06D00F9F102F01D01400D4E7023C51
:1041A000D2E71400D0E7B206D1D41F2CCFD87822A2
:1041B0002A550134D1E7B206CCD51F2CCAD85822D3
:1041C0002A550134C9E71F2CC7D860322A5501345B
:1041D000C3E7720703D52B222A550134CAE73207F9
:1041E000C8D520222A550134C4E7F0B5DE4657462B
:1041F0004E464546E0B593B081468A4608920993FB
:104200001CAB10CB1B789B461E9D219B9846002C17
:1042100003D1102342469A4390468023DB00464652
:104220001E4042461A4212D0002C22D000260EE038
:104230003033D9B2771C0AAB99552900200000F021
:10424000D3FFAC4216D31F2F14D83E000400290020
:10425000200000F0C9FFCBB2092BE9D942469206F3
:1042600005D54121C918C9B20A39C9B2E2E76121AD
:10427000F8E7270043460693209B05931F9B049372
:1042800003955B46029301970AAB0093099B089A3A
:1042900051464846FFF721FF13B03CBC9046994673
:1042A000A246AB46F0BDF0B5DE4657464E46454603
:1042B000E0B595B0089009910A920B931E9E1F9C41
:1042C00020AB1B789B46229B9946239D269B9A46B2
:1042D0003300234303D1103352469A43924680233E
:1042E000DB0057461F4052461A4219D03300234381
:1042F0002DD0002714E03033DAB27B1C98460CAB8B
:10430000DA554A462B003000210000F0AFFFA542ED
:104310001FD819D043461F2B1BD8474606000C0058
:104320004A462B003000210000F0A0FFD3B2092B39
:10433000E1D95246920605D54122D218D2B20A3AA4
:10434000D2B2DAE76122F8E7B145E3D901E0002310
:10435000984653460693259B0593249B04934B460E
:1043600003935B460293434601930CAB00930B9B74
:104370000A9A09990898FFF7B0FE15B03CBC904620
:104380009946A246AB46F0BDF0B5DE4657464E46CE
:104390004546E0B591B083468A460C9298461A9CF1
:1043A00008941B9D099522002B002000290001F094
:1043B000EAF9002800D0E5E001225242D34B200068
:1043C000290001F0DBF9002800D0DBE00122524295
:1043D000CF4B2000290001F0BBF9002800D0D1E02C
:1043E00000220023089D2800099E310001F0B0F949
:1043F000002800D0DDE008980999069007918023F5
:10440000DB001E9A1A400D921E9A1A4201D1062311
:104410001C930698079904000D000A000600024349
:1044200000D1CDE0080D4005400DBA4CA4466044D3
:104430000A03120BB84B13431F0001F0B7F9B74A38
:10444000B74B01F042F9B74AB74B01F017F9040036
:104450000D000022B54B3000390001F006F9B44AD6
:10446000B44B01F032F902000B002000290001F0EA
:1044700005F901F0B3F9814601F098F904000D0047
:10448000AD4AAE4B01F021F90022AD4B01F0F6F838
:1044900001F0A4F90600AB4AAB4B2000290001F063
:1044A00014F904000D00300001F080F9A74AA84B70
:1044B00001F00BF902000B002000290001F0D5F8F3
:1044C00004000D0002000B0001F0FFF80A900B91B0
:1044D000A04BF31800261F0522002B002000290006
:1044E00001F0CCF80E900F9122002B0000208021CB
:1044F000C90501F0BAF804000D000022964B0A9895
:104500000B9901F0C4F80022944B01F0B7F80200B7
:104510000B000A980B9901F0BAF80022904B01F0B9
:10452000ADF802000B000A980B9901F0B0F80200F8
:104530000B002000290001F0A1F802000B000E98EA
:104540000F9901F0A4F80022734B01F097F83200A4
:104550003B0001F0BAF806000F0004000D00069AB7
:10456000079B01F00BF900282CD001235B429C46ED
:10457000E1440022794B3000390001F088F8040052
:104580000D001FE01E9B04931D9B03931C9B029335
:10459000089A099B0092019343460C9A514658464B
:1045A00000F0F8F811B03CBC90469946A246AB46E4
:1045B000F0BD069580231B069C46664407961EE7C1
:1045C000002399464B466333C62B1FD804261E9BF7
:1045D0001B0527D52B00234310D0624A624B069857
:1045E000079901F0C3F8002800D183E000225F4B57
:1045F0000698079901F0ACF800287BD01C9B4B452E
:1046000006DD4A46981A431E1C9303E00526DEE7A2
:1046100000231C938023DB001E9A1A431E9200265F
:10462000002399461D9B9E426ED29F1B02231E9A19
:104630001A400A921E9A134202D0002E00D0002780
:104640004B46002B07D022002B000698079901F05B
:104650001EF806900791002200230898099901F09E
:1046600077F8002800D085E0414B1E9A1340049350
:1046700003971C9B0293069B079C0093019443465F
:104680000C9A5146584600F085F8002E00D189E773
:104690001E9B9B067AD54525441C43460200514685
:1046A0002800D8474B46DA179B185340052205923D
:1046B000013E0496002203920A3202924A46D00F2B
:1046C000019000934346220051465846FFF78DFD66
:1046D0000A9B002B00D165E702005F460C9E1D9DE2
:1046E000931BAB4254D2541C434651462020B8473A
:1046F0002200F5E71C9B002B94D00D9B002B91D042
:104700001C9B013B1C938DE700278FE7FFFFEF7F8A
:10471000FFFFEFFF01FCFFFF0000F03FFB799F5020
:104720001344D33FB3C8608B288AC63F0000F83FCC
:1047300061436F63A787D23F71A379094F930A4002
:104740000000E03F1655B5BBB16B0240EF39FAFEF1
:10475000422EE63FFF03000000002C4000002440F2
:10476000000018402D431CEBE2361A3F80842E4196
:10477000FFF7FFFF069C079D22002900802000060E
:10478000844661440B00069207936DE7652583E735
:10479000100007E7F0B5DE4657464E464546E0B501
:1047A00095B00690079193469946209F1E9A1F9BAD
:1047B0001000190000F0E7FF002831D10122524219
:1047C000BF4B1E981F9900F0C3FF002837D101226C
:1047D0005242BC4B1E981F9900F0D0FF00283DD1DB
:1047E0000022B94B1E981F9900F0C8FF002850D135
:1047F0000022B64B1E981F9900F0AAFF002848D14E
:10480000002200231E981F9900F0A2FF002850D11B
:1048100000239846229B5B0500D4B6E0002458E0B4
:10482000229B0393219B029303230193A84B0093A4
:104830004B465A4607990698FFF7F8FB0EE1229B74
:104840000393219B029304230193A24B00934B46B5
:104850005A4607990698FFF7E9FBFFE00423229ADE
:104860001A4022990B4210D09B4B002A0FD00422F1
:104870002299039121990291019200934B465A4645
:1048800007990698FFF7D2FBE8E0944BEDE7032287
:10489000EEE7229B0493219B039302971E9B1F9C90
:1048A000009301944B465A4607990698FFF76CFD12
:1048B000D4E01E9A1F9B0020002100F0D6FE1E901F
:1048C0001F9101239846A5E70CAB30221A55013FF2
:1048D00001341F2C01D8092FF6D81E981F9900F01B
:1048E0007DFF050000F062FF02000B001E981F997B
:1048F00000F0BBFEFA007A4B9B181A685B680A92BC
:104900000B9300F0E2FE0890099100F08BFF060087
:1049100000F048FF02000B000898099900F0A5FE7E
:104920000890099100226F4B00F028FF00282ED03C
:104930000136300000F036FF02000B000A980B9998
:1049400000F00CFF002801D001350026002F2CD1EB
:10495000280000F02BFF02000B001E981F9900F0AA
:1049600084FE06000F0000225E4B00F0F1FE0028DE
:1049700042D100225B4B3000390000F0FFFE0028DE
:104980003AD1EB0738D5013536E0062746E7002255
:10499000544B0898099900F0DBFE0028D6D1002E70
:1049A00001D0F307D2D50136D0E7AA461F2C11D883
:1049B000013F0A21300000F017FC651C30310CABC0
:1049C00019550A21300000F00FFC092E26D90600E7
:1049D0002C00EBE7554604E00CAA302111551F00CE
:1049E00001341F2C02D87B1E002FF5D11F2C03D8B9
:1049F0000CAB2E221A5501341F2C14D80A21280082
:104A000000F0CAFB661C30310CAB19550A21280096
:104A100000F0C2FB051E05D03400EDE72B00554623
:104A20001C00DEE734000323229A1340012B1CD024
:104A30001F2C06D84346002B32D00CAB2D221A5522
:104A40000134229B0393219B029301940CAB0093AE
:104A50004B465A4607990698FFF7E8FA15B03CBC52
:104A600090469946A246AB46F0BD219B002B13D041
:104A70004346002B02D10C3313420FD0219B013B44
:104A80002193190003E00CAB30221A5501348C42FB
:104A9000CED21F2CF7D9CBE72199F8E72199F6E779
:104AA000229B5B0704D50CAB2B221A550134C8E7B7
:104AB000229B1B07C5D50CAB20221A550134C0E739
:104AC000FFFFEFFFFFFFEF7F65CDCD4165CDCDC18E
:104AD00008C000100CC0001000C00010FCBF001087
:104AE000F8C100100000E03FF0B5DE4657464E46E4
:104AF0004546E0B593B082468B4690461193002917
:104B000000D1ECE200275546119B1878002800D10F
:104B1000E8E2252809D07C1C43463A005946A847BC
:104B2000119B013311932700EEE701331193002409
:104B30001DE00B00303BDBB2092B37D92A293AD0D4
:104B400000230A93119B1A782E2A44D000239A46F8
:104B5000119A1378683BD9B2122900D980E08B00F2
:104B6000CB49CB589F4601231C4301321192119A25
:104B700011780B00203BD8B21028DAD88300C54842
:104B8000C3589F4602231C4301321192EFE70423CE
:104B90001C4301321192EAE708231C4301321192AF
:104BA000E5E710231C4301321192E0E711A8FFF75B
:104BB0002BFA0A90C6E71C9B1A1D1C921868002845
:104BC00004DB0A90119B01331193BBE702231C43C2
:104BD00043420A93F6E78022D20014435A1C1192F2
:104BE0005A781300303BDBB2092B04D92A2A07D0AC
:104BF00000239A46ACE711A8FFF706FA8246A7E71A
:104C00001C9B1A1D1C921868002804DB8246119B0D
:104C1000013311939CE70020F8E780235B002343D6
:104C2000511C119152786C2A01D01C0018E0C0234D
:104C30009B001C430131119112E080232343511C3E
:104C400011915278682A01D01C0009E0C0231C434E
:104C50000131119104E080235B001C430132119269
:104C6000119B18780300253BDAB2532A00D92CE2B5
:104C70009300894AD3589F4680239B001C430132EE
:104C80001192EDE780235B001C4301321192E7E7AC
:104C9000782809D0582838D06F2838D0622838D0E2
:104CA00010239C430A2600E01026582833D0692898
:104CB00003D0642801D00C229443630501D501225E
:104CC000944369282AD0642828D0A30500D59FE002
:104CD000E30500D5B8E0630600D4CAE01C9A111DB4
:104CE0001C911168FF220A4005940A9B04935346C5
:104CF0000393029600230193009243463A005946DB
:104D00002800FFF772FA070027E01026CDE70826F3
:104D1000CBE70226C9E720221443C8E7A30520D425
:104D2000E30550D4630666D51C9A111D1C911168C9
:104D3000FF220A40D317D118594005940A9B0493C7
:104D4000534603930296D20F0192009143463A00D4
:104D500059462800FFF749FA0700119B01331193C8
:104D6000D2E61C9BDA1D07218A43110008311C91F1
:104D7000116853689C46DB170C930D930C9A0D9B9E
:104D8000100048400E90624653400F930E980F99C2
:104D90000C9A0D9B801A99410E900F9108940A9BD2
:104DA0000793534606930496002305936346DA0F50
:104DB00002920090019143463A0059462800FFF7BD
:104DC00072FA0700C9E71C9A111D1C911268D317CB
:104DD000D118594005940A9B0493534603930296B5
:104DE000D20F0192009143463A0059462800FFF73E
:104DF000FCF90700B1E7230605D51C9A111D1C918B
:104E00000023D25E96E71C9A111D1C91126891E74F
:104E10001C9BDA1D07218A43110008311C9108945C
:104E20000A9B079353460693049600230593029327
:104E3000136854680093019443463A005946280089
:104E4000FFF731FA070088E71C9A111D1C910594A1
:104E50000A9B04935346039302960023019313681D
:104E6000009343463A0059462800FFF7BEF9070071
:104E700073E7230606D51C9A111D1C9112681204B3
:104E8000120C31E71C9A111D1C9112682CE7C046C8
:104E900014C0001060C00010A4C0001046281AD032
:104EA0001C9B0733072293431A0008321C92049478
:104EB0000A9A0392524602925C681B68009301941E
:104EC00043463A0059462800FFF764FC0700119B4F
:104ED0000133119318E620231C43E1E7672801D032
:104EE000472802D180231B011C43452801D04728B5
:104EF00001D120231C431C9B0733072293431A0034
:104F000008321C9204940A9A0392524602925C68F8
:104F10001B680093019443463A0059462800FFF766
:104F200033FA0700119B01331193EDE502231A00B8
:104F30002240924623421FD001241C9B1A1D1C9222
:104F40007A1C9146187843463A005946A84753467A
:104F5000002B16D1119B013311934F46D4E5561CFB
:104F6000434659462020B847230032005C1C9D422E
:104F7000F5D83D001700E0E701233A002F000A9D15
:104F8000F4E74A46A9460A9D06E0571C434659469F
:104F90002020C84734003A00661CA542F5D84D468B
:104FA0009146D7E71C9B1A1D1C921B6899465346D5
:104FB000002B00D1013B4E4601E001361300327850
:104FC000002A02D05A1E002BF7D14B46F21A10923B
:104FD0008023DB0026001E401C4203D0524501D92D
:104FE0005346109302231A0022400B92234205D00D
:104FF0003A0037004C46A946554620E03A00109B3F
:105000005F46B3462E0006E0551C4346390020207B
:10501000B04723002A005C1C0A999942F4D8350055
:105020005E46BB46109437004C46A946554606E0FE
:105030001D000134561C43465946C84732002078AB
:10504000002804D0002FF4D06B1E002DF0D11700E3
:105050004D460B9B002B03D1119B0133119353E55C
:105060000A9F109B06E0561C434659462020A8473D
:10507000230032005C1C9F42F5D81700ECE7212387
:105080001C431C9B1A1D1C921B680093059408234B
:105090000493534603931023029300230193434642
:1050A0003A0059462800FFF7A0F80700119B01338A
:1050B000119329E57C1C43463A0059462520A84710
:1050C000119B0133119327001EE57C1C43463A00D7
:1050D0005946A847119B01331193270014E50B4B48
:1050E0009A460FE5AA4647450DD343465A1E434606
:1050F00059460020D047380013B03CBC9046994632
:10510000A246AB46F0BD3A00F1E7C046F93F0010B9
:1051100000B585B0029003910121009313004A422B
:1051200002A90248FFF7E0FC05B000BDFB3F0010FC
:1051300001480421014B184740050020615100102F
:1051400010B5010018231B8814221088984710BD41
:1051500010B5010018231B8816221088984710BD2F
:10516000F0B5C64600B507000E000025012398469D
:1051700000E00135B5420AD2AC003C192068FFF7C7
:10518000DFFF20600028F4D100239846F1E7404675
:1051900004BC9046F0BD0000124A936F9B0815D2E4
:1051A0009066D166002905D0FFE7FFE7FFE7516F62
:1051B000106F704704B580210906C21751400028BE
:1051C00000D0C84304F050FE002104BDF0B5146EB9
:1051D000556E576F166FFFF7E3FF146655665767F6
:1051E0001667F0BD000000D0114A936F9B0813D2E0
:1051F00010665166002905D0FFE7FFE7FFE7516F12
:10520000106F704704B5002801D00020C04304F09F
:105210002BFE002104BDC046F0B5146E556E576FCD
:10522000166FFFF7E5FF1466556657671667F0BD02
:10523000000000D094464E4A926F9208624601D216
:1052400030E0C046F0B54A4EB56F6D08FCD3346E01
:10525000756E776F366F00F025F89446444A1466F1
:105260005566576716676246F0BDC0469446404A89
:10527000926F9208624601D258E0C046F0B53C4EAB
:10528000B56F6D08FCD3346E756E776F366F00F0B6
:105290004DF89446364A1466556657671667624657
:1052A000F0BDC046002B24DB11D000293EDA00B54A
:1052B000C943404200D1013100F038F8C9434042AF
:1052C00000D10131DB43524200D1013300BD002A3D
:1052D000EBD1002801D1002905D00020C90FC90752
:1052E00001D1C043410800B504F0B6FD00220023FF
:1052F00000BD00B500290ADBDB43524200D1013377
:1053000000F014F8C943404200D1013100BDC94347
:10531000404200D10131DB43524200D1013300F061
:1053200005F8DB43524200D1013300BD002923D1EF
:10533000002B18D1002A0CD0BC460D4F38667A6677
:1053400000210023FFE7FFE7FFE77A6F386F67462A
:105350007047002801D00748010000B504F07CFD2B
:105360000022002300BD02000B0000200021704736
:10537000000000D0FFFFFFFF002B00D0BDE0130CAA
:1053800026D1002AE7D080B4104F39667A66FFE74D
:10539000FFE730B4040C7B6F396F1B0423433B667B
:1053A000FFE7FFE7FFE7C04684B27B6F3D6F1B045A
:1053B00023433B66FFE7FFE7C04600232C042D0C88
:1053C0007A6F386F00196941B0BC7047000000D097
:1053D000F0B594460025140E01D112020835140FC1
:1053E00001D112010435940F01D192000235D40F7E
:1053F00001D152000135D40B0134254F7C66254C78
:105400003C660E0C93B2FFE7FFE7FFE73C6F664395
:10541000360C7703BE467343DF0B5B04C01AB941F9
:10542000130C7343DB18C91ACE086643360CB64416
:1054300093B273431F0F1B01C01AB941130C73437E
:105440001F0B1B05C01AB941860D8F023E436643F0
:10545000360C092D24DB520A7243801A7703460A60
:105460006643360C16235B1BDE40DF40BF196446E3
:105470006643821B7046043506330100D940A840BC
:10548000C01900D30131A24206D20023F0BD0000B2
:10549000000000D0FFFFFFFF121B0130F3D3F1E744
:1054A00009277F1BFE406446A2B27243801A00D2D5
:1054B0000139220C7243130C1204821A99410B0019
:1054C0007046043513370100F940A840801900D315
:1054D0000131002B02D1A2420AD2F0BD013000D32B
:1054E0000131121BFAD2013BF8D1A24200D2F0BD29
:1054F000013000D30131121BF7E7F0B51C0C00D0CE
:1055000080E00CB400251C0A04D11B02160E3343A4
:10551000120208351C0B04D11B01160F3343120174
:1055200004359C0B04D19B00960F33439200023547
:10553000DC0B02D192185B4101351C0097186441C5
:105540000134464F7C66464C3C660E0CFFE7FFE795
:10555000FFE7C0463C6F6643360C7703BE4697B202
:105560007743C01B00D20139C01B00D201399FB262
:105570007743C91BC91B170C77437E04FF0B801BA5
:10558000B941CE086643360C0C2D33DBB644120B02
:105590001F053A431B0B97B27743C01B00D201395A
:1055A0009FB27743C91B170C77433E043F0C801B07
:1055B000B941860D8F023E43664329277F1BFE407B
:1055C0000C3D7746AF40BF1930BCA2B2ABB27243BC
:1055D0007343801A9941220C7243130C1204801AEF
:1055E000994102000B000137001BA941F9D2781E36
:1055F0000021F0BD0C277F1BFE4077467F0BAF409C
:10560000FF19E0E700245D1C07D0144F7D66396662
:10561000FFE7FFE7FFE7FFE73C6F95B29EB2654308
:105620006643401BB141150C1E0C654366433604AE
:105630002F0C3E432D04401BB141994204D202007D
:105640000B0020000021F0BD01D19042F7D3801A59
:10565000994101349942F2D3F6E70000000000D0EE
:10566000FFFFFFFF48404140484018B41B4B5B68B8
:10567000FC46019308BD04DF4359001018B4174BD2
:105680001B68FC46019308BD00DF4D59001094468D
:10569000134A926F920809D2624618B40F4BDB6826
:1056A000FC46019308BD0CDF055C00100C4AF0B508
:1056B000146E556E576F166F6246FFF7EEFF084A7D
:1056C0001466556657671667F0BD18B4034B9B68A0
:1056D000FC46019308BD08DFA95A001040190020BC
:1056E000000000D0FFB550404240504059404B4070
:1056F000594000E0FFB5154F4C00640D03D0BC428B
:1057000004D10C0314D80020090D09055C00640DB8
:1057100003D0BC4204D11C030AD800221B0D1B0578
:1057200001264B4009D44B4003D58B4200D1824225
:10573000FFBD9942FCD19042FFBD0B43DB180343F0
:105740001343F5D0C9434918FFBD0000FF0700000F
:1057500000B5FFF7CFFF804100BDC04600B5FFF7A1
:10576000C9FF01D9002000BD012000BD00B5FFF731
:10577000B9FF01D9002000BD012000BD00B5FFF731
:10578000B1FF804100BD012040054A00121804D835
:105790005A00121801D800207047012070470020DD
:1057A000704700000021002805D17047C11748400C
:1057B000401AFAD0C90713B5064B1B6898470CBCB2
:1057C000441CA2401005120B0349091B090519438B
:1057D000114310BD401B00201F04000010B54C00F9
:1057E000620D8023D218DB00D21A5B057E2A10DD01
:1057F0009E3A13DACC170903490819435242D140A3
:10580000640001341532202A05DAD0400843604391
:1058100010BD002010BD0846604310BDC80FC01861
:10582000013810BD18B4044B5B6AFC46019308BDF7
:1058300024DF315E001000004019002018B4044B32
:10584000DB6FFC46019308BD7CDFAD5E00100000FD
:105850004019002070B513231C78012C07D0012CAF
:105860000EDC022C02DC1C4A1C4B9A6470BD002327
:105870001F2BF4D899001848184A88500133F7E7CD
:105880001748FFF765FC05001648FFF761FC023872
:1058900003789B007F2B19DD802229000F4800F040
:1058A000B5FC022CDDD1104B1A88B5231B029A429D
:1058B00009D10E4B1A880E4B9A4204D10D4B1A880F
:1058C0000D4B9A42CDD00020FDF74EFF0B4B0C4AFA
:1058D00030210C48FDF72AFF09590010401900201B
:1058E000534400005346000054380000D8380000EC
:1058F000494600009C3800005946000048C200108C
:10590000F0C20010A8C2001007B56046002800D100
:1059100000BE01880A0A0230DF2AFAD1C9B2820821
:1059200004D3028840880004104300E00068024A63
:105930005050039007BD0000401900200FB403BC75
:105940000CBCF0B50124E407634000E0F0B50C0D99
:10595000CF0F661E3605891B640503D3C943404239
:1059600000D30131640D03D0661CF60A07D0E41B96
:1059700000207F00791C89078912803C24031D0DBB
:10598000DF0F6E1E36059B1B6D0503D3DB435242B2
:1059900000D301336D0D03D06E1CF60A07D0ED1B4A
:1059A00000227F007B1C9B079B12803D2D032F1B39
:1059B000661B58D4A446202E46DA20371400BC407B
:1059C0001D00BD40F24033412A4380185941CB0F9E
:1059D00005D0C943C0430022644250415141624650
:1059E0004D0D28D10D0D07D100281FD0241940419D
:1059F0004941013A0D0DF9D0640006D3013000D3BE
:105A00000131002C01D140084000013A0BD4941C14
:105A1000E40A04D112051144DB071944F0BDD9078B
:105A2000204B194300E0D9070020F0BD0029DDD14B
:105A3000002CDBD1F0BD0132C6074008CD0728435A
:105A40004908002EE1D0D9E73C2E29DA203E403724
:105A50001400BC4000D00124F24014431A00BB40A3
:105A60001C43D317ACE7AC46202F08DA20360400DD
:105A7000B4400D00B540F84039412843A5E73C2F1C
:105A80000CDA203F40360400B44000D00124F84036
:105A900004430800B1400C43C117EAE710001900A5
:105AA000002494E70000F07FF0B50C0D661E36056B
:105AB000891BE60A6405640D02D0651CED0A04D05A
:105AC000002001210905803C2403A4461C0D671E0B
:105AD0003F05DB1BE70A6405640D02D0651CED0A77
