:020000041000EA
:1000000000B5324B212058609868022188439860DF
:10001000D860186158612E4B002199600221596106
:100020000121F02299502B49196001219960352056
:1000300000F044F80222904214D00621196600F024
:1000400034F8196E01211966002018661A6600F04E
:100050002CF8196E196E196E052000F02FF8012189
:100060000842F9D1002199601B49196000215960AB
:100070001A491B48016001219960EB211966A021F2
:10008000196600F012F800219960164914480160C1
:100090000121996001BC002800D000471248134993
:1000A000086003C880F30888084703B5996A0420EC
:1000B0000142FBD001200142F8D103BD02B5186610
:1000C0001866FFF7F2FF186E186E02BD00000240BE
:1000D000000000180000070000035F00212200005C
:1000E000F4000018222000A00001001008ED00E03C
:1000F00000000000000000000000000074B24E7A12
:1001000000200420F7010010C3010010C5010010F9
:10011000C1010010C1010010C1010010C101001097
:10012000C1010010C1010010C1010010C701001081
:10013000C1010010C1010010C9010010CB01001065
:10014000CD010010CD010010CD010010CD01001037
:10015000CD010010CD010010CD010010CD01001027
:10016000CD010010CD010010CD010010CD01001017
:10017000CD010010CD010010CD010010CD01001007
:10018000CD010010CD010010CD010010CD010010F7
:10019000CD010010CD010010CD010010CD010010E7
:1001A000CD010010CD010010CD010010CD010010D7
:1001B000CD010010CD010010CD010010CD010010C7
:1001C00000BE00BE00BE00BE00BE00BE00F04BF888
:1001D000103800BEF2EB8871EC9A00101C9B0010E6
:1001E0003402001090A31AE700202149086006C8D5
:1001F00081F3088810471F48006800282FD10DA4FC
:100200000ECC002902D000F012F8F9E71A491B4A77
:10021000002000E001C19142FCD1194988471949E9
:1002200088471949884700BEFDE701C901C29A42C3
:10023000FBD370471C9B0010C0000020DC05002091
:1002400038A00010000004200000042038A0001096
:1002500000100420001004200000000070470B482C
:1002600003F0DEFB0047EFF30580C0B270470000EB
:1002700008ED00E0000000D0E00500204813002059
:10028000291F00109503001005200010575600008C
:1002900006005250ABB360531C920010060052503F
:1002A000861C03022C920010060052505422A29D7C
:1002B0003892001005005250DE65F46838A0001036
:1002C000F8B5C0460448054B10B5834203D0044B33
:1002D000002B00D0984710BDDC050020DC05002075
:1002E0000000000006480749091A8B10C90FC918F9
:1002F00010B5491003D0044B002B00D0984710BD17
:10030000DC050020DC0500200000000010B5074CD3
:100310002378002B09D1FFF7D5FF054B002B02D026
:10032000044800E000BF0123237010BDE806002050
:1003300000000000287D0010054B10B5002B03D0F5
:100340000449054800E000BFFFF7CCFF10BDC046E0
:1003500000000000EC060020287D001010B5D0231E
:100360001B061B699B0108D4D0231B068022920424
:100370005A61064804F0F0FB10BDD0231B06802212
:1003800092049A61024804F0E7FBF5E7287D00102B
:10039000307D001070B504F01BFCFA20C00001F0A5
:1003A000E7F93A493A4807F011FC3A4804F0D4FB1F
:1003B000394804F001FC0321042000F047FB03212D
:1003C000052000F043FB00220121042000F056FB31
:1003D00000220121052000F051FB304804F0BCFB55
:1003E000FA20800001F0C4F9192000F061FB2C48CC
:1003F00004F0B2FB2B4804F0DFFBD022120680236E
:100400009B045362126A1A423CD0C046264804F04C
:10041000A3FBFA24A400200001F0AAF9234D280030
:1004200004F09AFB224804F0C7FB224804F094FB36
:10043000280004F091FB200001F09AF900F042F846
:1004400000F0E2F900F0CAF8032000F0E7F800201D
:1004500000F084FA0A2004F045FB174804F07CFB06
:10046000164C200004F078FB00F022F9FFF776FF2D
:1004700000F0BCFA200004F06FFBFA20800001F0CD
:1004800077F9EAE70E4804F067FBBFE7801A060039
:10049000B40500203C7D0010507D0010647D0010EC
:1004A0000C7E00108C7D0010E07D0010087E001096
:1004B000247E0010407E00105C7E00106C7E0010D8
:1004C000A47D001010B584B0344804F045FB03AAA5
:1004D000D02313700023009301337621304807F0B6
:1004E000A1FB01283AD037232E4A2F492F4804F088
:1004F00063FB022149422E4804F05EFB0A2001F012
:1005000037F900230093013302AA7621244807F02B
:1005100095FB012828D04623224A2649234804F087
:100520004BFB0A2001F024F902AC2178224804F0A8
:1005300043FB2378602B1DD0012B20D01F4804F0F3
:100540000BFB5C23174A1E49184804F035FB1D4875
:1005500004F002FB0120404204B010BD03AB197847
:10056000194804F029FBC9E703AB1978174804F0D0
:1005700023FBD6E7164804F0EFFA0020ECE7154815
:1005800004F0EAFA5423074A1349084804F014FB1C
:100590000C4804F0E1FA01204042DDE7907E0010B3
:1005A000B405002020840010D07E0010F87E0010DA
:1005B000107F0010847F0010B87F0010388000107A
:1005C0006C800010248000103C7F0010607F0010C1
:1005D000D07F0010E87F00101080001010B584B0AC
:1005E0000A4804F0B9FA03AC094B238000230093B6
:1005F000023322007621074807F014FB2178627845
:10060000054804F0D9FA002004B010BD8480001021
:10061000E0B6FFFFB4050020C4800010F0B587B03D
:1006200007001D4804F098FA1C4B1B786A461375A6
:100630001B4D00260096012305AA7621280007F00D
:10064000F1FA6B46197D174804F0B6FA00960123BB
:1006500004AA7621280007F0F1FA6B46197C1248AB
:1006600004F0AAFA6B461B7C0322934303243C400C
:100670001C4321000D4804F09FFAF4236A461373CB
:1006800054730096022303AA7621280007F0CAFAC1
:10069000002007B0F0BDC046F8800010A481001013
:1006A000B4050020348100105C81001084810010AA
:1006B00030B585B00F4804F04FFA0F4B1B786A46EF
:1006C00013730E4C00250095012303AA7621200008
:1006D00007F0A8FA0095012303AA7621200007F06D
:1006E000ADFA6B46197B064804F066FA002005B0A7
:1006F00030BDC046A8810010A4810010B4050020C0
:100700005C81001010B5040001882D4804F054FAF3
:100710000223E15E2B4804F04FFA0423E15E2A48ED
:1007200004F04AFAE188294804F046FA0823E15E19
:10073000274804F041FA0A23E15E264804F03CFA17
:100740000C23E15E244804F037FA0E23E15E2348CF
:1007500004F032FA1023E15E214804F02DFA12234E
:10076000E15E204804F028FA1423E15E1E4804F0FC
:1007700023FA1623E15E1D4804F01EFA217E1C4870
:1007800004F01AFA1A23E15E1A4804F015FA217FE0
:10079000194804F011FAE18B090109B2091117484F
:1007A00004F00AFA218C090109B20911144804F075
:1007B00003FA2223E156134804F0FEF910BDC046A7
:1007C000E0810010F4810010088200101C820010EB
:1007D0003082001044820010588200106C82001099
:1007E0008082001094820010A8820010BC82001049
:1007F000D0820010E4820010F88200100C830010F8
:100800002083001034830010F0B5C64600B596B0C2
:100810004F4804F0A1F904AC002704971D220021E1
:1008200005A804F07FF84B4B1B786A4613734A4EB9
:100830000097012303AA7621300007F0F3F9012382
:1008400098460093173322007621300007F0F6F91E
:1008500023786278120213430DAD2B80A378E278DF
:10086000120213436B802379627912021343AB8027
:10087000A379E27912021343EB80237A627A12029F
:1008800013432B81A37AE27A120213436B81237BF9
:10089000627B12021343AB81A37BE27B1202134300
:1008A000EB81237C627C120213432B82A37CE27CCB
:1008B000120213436B82237D627D12021343AB82CB
:1008C000A37DE27D12021343EB82237E2B76E1238C
:1008D0006A4613730097E03B03AA7621300007F0C5
:1008E000A1F943460093073329226A447621300058
:1008F00007F0A4F9637EA27E120213436B83E37EAA
:100900002B77227F1201637F78218B431A43EB8B75
:100910001B0B1B031343EB83A37FE27F12011B0915
:100920001A432B8C1B0B1B0313432B842023E256EF
:100930000233EA5421220021200003F0F3FF2800B3
:10094000FFF7E0FE002016B004BC9046F0BDC046A4
:100950004883001084830010B4050020F0B585B0F2
:1009600005001C4804F0F8F803AC1B4B1B782370FF
:100970001A4E00270097012322007621300007F04D
:1009800051F92178164804F017F900970123220045
:100990007621300007F052F92178124804F00CF962
:1009A00020781F2420401F239D436CB20443E4B2EF
:1009B00021000D4804F000F9F5236A4613725472C1
:1009C0000097022302AA7621300007F02BF905B028
:1009D000F0BDC046888300101C840010B4050020C0
:1009E000C4830010F08300108481001070B584B0BF
:1009F000114804F0B1F8114B1B786A461373104D7F
:100A000000260096012303AA7621280007F00AF9A0
:100A10006B46197B0B4804F0CFF802AC009601231B
:100A200022007621280007F009F92178064804F011
:100A3000C3F804B070BDC046888300101C84001049
:100A4000B4050020C4830010F083001010B58300AB
:100A5000084A944663441C6840226240C024144003
:100A60008022520113431C60C000034B9C4660442B
:100A7000416010BD04C001400040014080000B4BAC
:100A80009C46604400290DD00823002A0CD0042283
:100A90001343026853400C2213408022520110433A
:100AA000036070470023F0E70022F1E704C0014033
:100AB00010B501238340D022120693629361052171
:100AC000FFF7C4FF10BD0000EFF3108072B6034BB8
:100AD0001B68002BFBD0BFF35F8F70472C0100D049
:100AE000BFF35F8F024B00221A6080F310887047BB
:100AF0002C0100D0F8B506000C001500FFF7E4FF4C
:100B0000E308F718F15C07222240012393400B42CF
:100B100005D1DBB20B433B70FFF7E2FFF8BD2100CC
:100B2000280001F091FAF0B583B00600019114009D
:100B30001F00FFF7C9FFBC420ED8E308F518F35CAD
:100B40000721214001228A401A4201D00134F2E7F4
:100B5000D2B21A432A7001E001246442FFF7C0FFB9
:100B6000002C02DB200003B0F0BD019B002BF9D06C
:100B7000089801F069FA0000034B1B680220184036
:100B8000431E9841C0B2704700C0064000231F2B8F
:100B900008D8054A9A189200BFF35F8F00211160B0
:100BA0000133F4E77047C04640000034054A10782E
:100BB000431CDBB21370172B02D9130010221A70DA
:100BC0007047C046C804002000B583B00100044B44
:100BD00000931F2318220348FFF7A5FF03B000BDB1
:100BE000308400108C0B002070B504000D0006202E
:100BF00001F044FBC000290002F066FFC60908D0DE
:100C00000E4B9E4217D87F2318400130350046080E
:100C100000E001256562A6622C3480208001044337
:100C200000232360062001F029FB8000A901891917
:100C300002F04AFF70BD0026014DEBE7FEFF000009
:100C4000FFFF0000002909D00A22064B9C466044A1
:100C5000434258414000044BC25270478022520028
:100C6000F3E7C0460080FCBF8010002070B505008F
:100C70000C00062001F002FB002829D0164B9D42F3
:100C800027D08022D203154B1A60154B1A60154BE2
:100C90009B6811009943FAD100212800FFF7D2FF89
:100CA00021002800FFF7A0FF2C002C34E96A602205
:100CB0004A406E21114080225201224311600A4BAA
:100CC0002B6380239B01234310221A600323AB6410
:100CD00070BD80221204D6E70080034000E000408F
:100CE00000F0004000C000400103000070B50500A6
:100CF0000C00080000F0CCFD200000F0AFFE084919
:100D0000200000F0EFFDFFF751FF064B9C466044CA
:100D1000800068602C75A400034BE55070BDC04690
:100D20003110001040000034301000200A4B1A68C7
:100D3000EFF3108172B61368002BFCD0BFF35F8F06
:100D4000054B1B68BFF35F8F00221A6081F3108888
:100D500040BF0020002170474810002010B5002936
:100D600022D003681B7B99421ED8174B9C466144D6
:100D7000090183689C4661440C684968002A19D0BF
:100D800003681B7B9A4215D883680F4884466244E7
:100D900012019A1810685368020001208B4201D892
:100DA0000ED00020C0B210BD084B094A3B210948B3
:100DB00001F02CF9054B064A3B21064801F026F9C3
:100DC000A242EFD8EDE7C046FFFFFF0F9884001066
:100DD000608700106084001010B500291ED0037BCE
:100DE00099421BD84B005B18033B0468A44663443C
:100DF000002919D0002A1DD0914221D0002A25D0E7
:100E0000047BA24222D804685000801803382018BE
:100E10008170197800291FD11A7010BD104B114A2A
:100E20006921114801F0F2F8104B114A70310E4857
:100E300001F0ECF80F4B0E4A71210B4801F0E6F877
:100E40000D4B0B4A7221084801F0E0F8044B054AAB
:100E50006921054801F0DAF841701A70DDE7C046F3
:100E6000CC84001020870010E8840010308500102A
:100E70002C8700103C8500104885001070B50600D6
:100E80000D001400002914D0002A14D08068736863
:100E90009847002806D0220029003000FFF79CFF69
:100EA000280007E02A0021003000FFF795FF20000E
:100EB00000E0100070BD0800FCE70000F0B583B052
:100EC0000500009201930AAB1C780BAB1F78002C35
:100ED00026D003685A7B944207D10123002B19D1F5
:100EE000002C3BD1200003B0F0BD002C0CD01A7BAD
:100EF000944209D81A6863001B19033BD3189B78E6
:100F0000002BEBD00123E9E73E4B3F4A69213F48E4
:100F100001F07CF83E4B3F4A65213F4801F076F8EE
:100F200003689C7B002CDBD012D01A7B94420FD834
:100F300062001219033A19688C4662445178997319
:100F4000002900D1D9730023937053701370C7E741
:100F50002C4B2D4A69212D4801F058F8002C3AD02D
:100F60002B681B7B9C4236D82C4BE3181B01AA68CC
:100F700094466344009A1A60019A5A60089A9A60EB
:100F8000099ADA602E68002C2BD030D0337B9C423B
:100F90002DD863001B19033B32689446634400223A
:100FA0009A705A701A70717B22003000FFF766FF4A
:100FB0007073844200D095E7287D009A019B00F071
:100FC000D9FC061E01D0002F17D00C9B002B00D19E
:100FD00088E71E7086E7124B124A3B210E4801F04B
:100FE00015F8114B114AA621084801F00FF8054BDE
:100FF000054A6921054801F009F82868210000F038
:1010000017FFE2E7CC84001020870010E88400106E
:10101000608500109887001060840010FFFFFF0FAC
:1010200098840010608700105C84001040870010D6
:10103000F0B5DE4657464E464546E0B58BB00990C2
:10104000002308938200B34BD658370052E0B24BCE
:10105000B24A3D21B24800F0D9FFB24BB24A3B211F
:10106000B24800F0D3FF002901D1002869D1002146
:10107000404600F0D3FEA04219D12A686B68069260
:101080000793AB689846EB689A464346002B14D00A
:10109000002C18D03B681B7B9C4214D8631EFA6856
:1010A000D35C08931B0218433861002015E0A04B65
:1010B000A04A8C219D4800F0A9FF9F4B9D4A90219A
:1010C0009A4800F0A3FF974B9C4A4021974800F0B4
:1010D0009DFF00239A46984600207B68BFF35F8FF0
:1010E00000221A6086F310884346002B32D1002874
:1010F00000D107E100F0D8FB02000B1EA7DB0020A7
:101100000021069007917868EFF3108672B60168A7
:101110000029FCD0BFF35F8F396888464C7B002CD8
:10112000D7D09AD0097B8C4297D8854965182D0174
:10113000B9688C46654428686968801A9941002915
:1011400091DD2A686B68099800F014FC00239A4628
:101150009846C2E7089B1B02234399465146180054
:10116000C04705000E007A68EFF3108B72B6136863
:1011700059424B41D9B2002BF9D1BFF35F8F002EFA
:1011800026DB002E52DD3B69002B53D04B4572D13C
:1011900000F08AFB02000B1E73DB010018005219DD
:1011A0007341984202D804D1914202D9012252429D
:1011B000D317002B6BDB00210491013103910294C2
:1011C00051460191414600913800FFF777FE49E012
:1011D0003B69002BD5D04B451CD1069A079B1000CC
:1011E0001900521BB341994202D804D1904202D94E
:1011F00001225242D317002B12DB0021049101314E
:101200000391029451460191414600913800FFF745
:1012100055FE27E04B4B474A9F21444800F0F6FE1D
:101220003D4B3E4A3D213E4800F0F0FE002E01D1EC
:10123000002DA8D13A68002C45D0537B9C422CD17C
:10124000012100293FD1D37B002B42D1D473002C44
:1012500052D03B681B7B9C424ED8FA68013C135D20
:101260000133135500233B617A68BFF35F8F13602E
:101270008BF310883EE7334B2E4AA2212B4800F017
:10128000C5FE254B254A3D21254800F0BFFE224BD7
:10129000224A3D21224800F0B9FE002C0DD0137BDC
:1012A0009C420AD863001B19033B106884466344C0
:1012B0009B78002BC5D00121C3E7234B234A69212A
:1012C000234800F0A3FE234B234AF721204800F0D7
:1012D0009DFE002B0AD0117B8B4207D85900CB18FA
:1012E000033B11688C4663445C70AFE7164B174AAA
:1012F0006921174800F08AFE0A4B104A40210B482A
:1013000000F084FE0BB03CBC90469946A246AB462A
:10131000F0BDC046301000208885001008870010FE
:10132000A48500109884001060870010608400106D
:10133000E8850010B0870010008600106C87001050
:10134000FFFFFF0F0C860010CC84001020870010D8
:10135000E8840010488600105087001010B50A4B32
:101360005B68002B04D00A21084800F097FB10BDF1
:10137000054C2300064A1021206800F06FFC032171
:101380002000FFF7B3FCEEE7CC040020481000205B
:101390005D0D001010B5064B5B68002B01D00448B2
:1013A00010BD044B044A5C21044800F02FFEC046E7
:1013B000CC0400206C860010808700106084001030
:1013C000F0B5DE4657464E464546E0B58BB0804602
:1013D00016001F00149B9A46159B994616AB1B7866
:1013E0009B461F2302AA9446634400221A7032E0EF
:1013F000002809D042461268127B904204D8421E4F
:101400004146C9688A5C48E0434B444A402144480D
:1014100000F0FCFD0798002B75D05B46002B72D0C6
:101420004946D04704000D0003000B4300D171E092
:10143000002946DB00F038FA06000F1E55DB36198E
:101440006F41B94202D804D1B04202D90126764296
:10145000F717002F4FDB43465A68EFF3108472B63C
:10146000136859424B41D9B20791002BF8D1BFF311
:101470005F8F1F3302AA94466344049300230393AF
:1014800002934B4601935346009332003B00404683
:10149000FFF714FD031EABD1020041464968BFF3BC
:1014A0005F8F00250D6084F31088002B29D01F2347
:1014B00002A98C4663441B78002BABD11202104367
:1014C000A9E732003B00361BAF41BB4202D804D132
:1014D000B24202D901267642F717002FBBDA114B30
:1014E000114A3D21114800F091FD0E4B0E4A3D215D
:1014F0000E4800F08BFD0B4B0B4A3D210B4800F0D2
:1015000085FD012040420BB03CBC90469946A24666
:10151000AB46F0BD0798F6E7988400106C87001082
:10152000608400108885001008870010A4850010D2
:10153000F8B504004268EFF3108572B6136858429C
:101540004341D8B2002BF9D1BFF35F8FCBB22268F1
:10155000567BB3421BD10120002847D02069884226
:101560002BD0090AC9B2002B2DD02068007B834202
:1015700029D8581EE668305C88422AD0002063686B
:10158000BFF35F8F00221A6085F31088F8BD002B2F
:101590000DD0167BB3420AD85E00F618033E1768DA
:1015A000BC466644B678002ED6D00120D4E7124B54
:1015B000124A6921124800F029FD124B124AFE21FD
:1015C000124800F023FD124B124A40210F4800F050
:1015D0001DFD1900100000F02BFC0028CFD10621C2
:1015E0000D4B094AFF31094800F010FD23698B4279
:1015F000C5D100232361C2E7CC84001020870010EE
:10160000E884001090860010CC87001060840010E1
:10161000988400106C870010B4860010F0B587B075
:1016200006000F00FEF71FFE00281FD106246442AB
:10163000E517A4197D41BD4202D803D1B44201D9B6
:1016400000240025002D14DB0494059500F02CF9EE
:1016500002000B1E13DBA41A9D41002D17DC14D0D1
:101660003000390000F02CF907B0F0BD234800F03D
:10167000EBFC234B234A3D21234800F0C7FC204BC1
:10168000204A3D21204800F0C1FC002CE8D0FFF7A3
:1016900081FE0023029301931C4B0093049A059B47
:1016A000FFF78EFE002818DADAE7002300E00023B7
:1016B000002BD5D1164B1A68EFF3108172B6136860
:1016C000002BFCD0BFF35F8F114B1B68BFF35F8F04
:1016D00000221A6081F3108820BF0499059A0D4BEF
:1016E0005B6A9A42E3D80B48806A884203D29A42E6
:1016F000DBD00123DCE70123DAE7C046B88600101F
:101700008885001008870010A48500102D0D00109A
:101710004810002000400540F8B504000D0000F01E
:10172000C3F802000B1E10DB20002900801859416D
:101730008B4202D804D1824202D901204042C11713
:10174000002908DBFFF76AFFF8BD064B064A3D217A
:10175000064800F05BFC034B034A3D21034800F0C0
:1017600055FCC0468885001008870010A48500102D
:1017700010B5FA2292000023002103F019F8FFF7B8
:10178000CBFF10BD70B584B005000C00FFF702FE62
:10179000002302930193194B00932A002300FFF7C3
:1017A0000FFE061E12DC164B5B6A9C4209D8144AD7
:1017B000926AAA4208D29C4201D0012002E0002095
:1017C00000E0002004B070BD0120FBE720BFFFF760
:1017D000E1FD3100FFF7ACFE094B5B6A9C4209D882
:1017E000074A926AAA4207D29C4201D00120E9E747
:1017F0000020E7E70020E5E70120E3E72D0D0010DA
:101800000040054070B5EFF305833F2018401038C5
:10181000EFF3108472B6194B1B68002BFBD0BFF39B
:101820005F8F012319008140154A5163154A1278D0
:101830001500C5402B4214D0114B5D6A8300124E37
:101840009B599D4206D38300104D5B598A430D4935
:101850000A7007E00A4A031D9B009958995000231B
:1018600000E00023BFF35F8F044A0021116084F37E
:101870001088002B00D0984770BDC046280100D0CA
:10188000004005407F100020541000207C0A0020FA
:1018900010B50100024A0348FFF72CF910BDC046FD
:1018A000E48700107C100020044B5B6A034A906AB6
:1018B0001900536A9942F9D17047C046004005406B
:1018C000074B5B6A8B4204D2054B5B6AFAE7044B19
:1018D0005B6A8B4203D1024B9B6A8342F7D370470A
:1018E0000040054070B504000D00EFF3108672B69D
:1018F0001B4B1B68002BFBD0BFF35F8F002D1CD050
:10190000200000F03BFD174B83420BD01900200054
:1019100000F03CFD0121200000F020FD0123A34048
:10192000114A1360A400114BE550BFF35F8F0C4BBD
:1019300000221A6086F3108870BDA2000B4B0021B4
:10194000D1500122A2400A490B7893430B700549FC
:10195000200000F045FD0021200000F0FFFCE4E73E
:10196000280100D005180010386005407C0A0020CE
:101970007F100020F0B5DE4600B584B004001500ED
:1019800001921E000293FFF78FFF03958E4202D84B
:101990004ED185424CD9EFF3108B72B6274B1B68A2
:1019A000002BFBD0BFF35F8F254A17780125A54098
:1019B000EBB23B431370234B5D63221D92000199F0
:1019C000D150A2002049029850501B6A2B4212D1DC
:1019D0001C4B1B6C2B4208D00020BFF35F8F174BB2
:1019E00000221A608BF3108823E0184B184AC1219B
:1019F000184800F00BFBFFF757FF8E4214D802D1B6
:101A0000039B834210D80E4B1B78BB420ED00D4B6C
:101A10001D625D631F2004400123A3400E4A136032
:101A2000074B1F701E38D8E70020D6E70120D4E707
:101A3000012004B004BC9346F0BDC046280100D08C
:101A40007F1000200040054054100020088800103E
:101A50006C8800102C88001080E200E010B5EFF3D5
:101A6000108472B60A4B1B68002BFBD0BFF35F8F4C
:101A700001238340074A136207490A789A430A7090
:101A8000BFF35F8F024B00221A6084F3108810BDF1
:101A9000280100D0004005407F100020024B9C46EA
:101AA00061448900016070474000003470B5040053
:101AB0000D00FFF77BF801002000FFF7EFFFFF2389
:101AC00023716571BFF35F8F70BD10B50021FFF703
:101AD000EDFF10BD10B5FF21FFF7E8FF10BD0000BE
:101AE000034B9C46614489000160BFF35F8F7047E0
:101AF0004000003410B504000120FFF765F8010034
:101B00002000FFF7EDFF10BD10B500291ED0037BAC
:101B100099421BD84B005B18033B0468A4466344FE
:101B2000002919D0002A1DD0914221D0002A25D0A9
:101B3000047BA24222D80468500080180338201881
:101B40008170197800291FD11A7010BD104B114AED
:101B50006921114800F05AFA104B114A70310E48B1
:101B600000F054FA0F4B0E4A71210B4800F04EFA68
:101B70000D4B0B4A7221084800F048FA044B054A05
:101B80006921054800F042FA41701A70DDE7C0464D
:101B9000CC840010448A0010E884001030850010C6
:101BA000508A00103C8500104885001070B5060072
:101BB0000D001400002914D0002A14D08068736826
:101BC0009847002806D0220029003000FFF79CFF2C
:101BD000280007E02A0021003000FFF795FF2000D1
:101BE00000E0100070BD0800FCE7000010B5002305
:101BF000437301338373037BC3730123027B9A42D4
:101C000014D9002B0CD0027B934209D85A00D21869
:101C1000033A01688C4662440133DBB25370EDE74E
:101C20000B4B0C4A69210C4800F0F0F9002A09D04E
:101C3000924207D8016853009A18033A8A18002381
:101C4000537010BD024B034A6921034800F0DEF9CE
:101C5000CC840010448A0010E884001010B5017391
:101C600042608360FFF7C2FF10BD000070B5040042
:101C7000081E00D170BD002934D0237B994231D891
:101C80004B005B18033B2268944663445A78002A51
:101C9000F0D02DD0237B9A422AD853009B18033BC7
:101CA00021688C4663445D7800215970002825D056
:101CB000237B984222D843001B18033B21688C46A3
:101CC00063440021597001002000FFF76FFF0600F8
:101CD00029002000FFF7CAFF020031002000FFF7B3
:101CE00065FFC7E7084B094A6921094800F08EF9EA
:101CF000054B064A6921064800F088F9024B034A61
:101D00006921034800F082F9CC840010448A001055
:101D1000E884001070B505000C001600002928D0DA
:101D20002DD0037B99422AD84B005B18033B0268F5
:101D3000944663445A78002A27D19A78002A2AD1F7
:101D40001978FFF793FF0300002E03D0EA7B002AE7
:101D500027D1EC73002B37D1002C49D02B7B9C4230
:101D600046D82B6861000C19033C1C1900236370D2
:101D700070BD224B224A3821224800F047F9224BFD
:101D8000224A6921224800F041F9224B1C4A3A219B
:101D90001C4800F03BF9204B194A3B21194800F040
:101DA00035F9002A0AD0297B8A4207D851008A18BF
:101DB000033A29688C4662445470CAE7124B134AAE
:101DC0006921134800F022F9002B0BD02A7B9342A3
:101DD00008D843001B18033B2A689446634400223A
:101DE0009A70B9E7084B094A6921094800F00EF9D1
:101DF000054B064A6921064800F008F99089001051
:101E0000648A001098890010CC840010448A001065
:101E1000E8840010D0890010F889001070B5040023
:101E20000A00457B2900FFF775FF6073280070BD2D
:101E300070B50400002966D0437B8B420ED0002988
:101E400011D0037B99420ED84B005B18033B02680C
:101E5000D0188378002B0CD1002055E00121FFF72A
:101E6000DDFF012050E0294B294A6921294800F073
:101E7000CDF8002B1FD0227B93421CD825685A0036
:101E8000D318033BEA18EB5C8B421AD0002B1BD013
:101E9000227B934218D85A00D318033B2268D218E9
:101EA00053788B4216D0002BF0D11B4B1B4A672175
:101EB0001B4800F0ABF8154B154A6921154800F096
:101EC000A5F84378137007E0104B114A69211148B7
:101ED00000F09CF843785370002383704370012214
:101EE0002000FFF717FF0200617B814205D0200030
:101EF000FFF75CFE6073012006E00A4B074A6D2184
:101F0000074800F083F8002070BDC046CC84001064
:101F1000448A0010E88400101C8A0010788A00109F
:101F200098890010248A001070B5264B264A1A6042
:101F3000264B274A1A60274B9A68254B9343FAD1C0
:101F4000254C264B9C4202D208CC9847F9E700F07A
:101F500015F91E4B224A1A601E4B9B68DB43DB01BE
:101F6000FAD1204B40229A675A671A67DA661E4CEC
:101F700003E02000FFF7A9FD08341C4B9C4206D269
:101F80006379002BF5D02000FFF7A4FDF4E7184C8F
:101F9000A168184DC022280002F0CAFCA560FEF717
:101FA00062F9002800D000BEFEF7F0FD00F07AFBD9
:101FB000FFF7D4F9104C01E008CC98470F4B9C4236
:101FC000FAD370BD00E00040BFCDFBFE00F0004042
:101FD000FE7F3C0000C00040C4050020D405002066
:101FE000FFFFFF0100F00140BC050020C4050020F8
:101FF00000ED00E000000020D4050020DC050020FA
:1020000000BEFDE710B5FFF7FBFF000010B582B082
:102010000C001900002A0CD0084B002A0BD00192AA
:10202000009323000200064802F0C6FD0120FFF7DE
:10203000E7FF044BF1E7034AF1E7C046908A00103E
:10204000A08A0010A08100100FB400B583B008482A
:1020500002F082FD049B002B07D005A90191180016
:1020600002F088FD034802F077FD0120FFF7C8FF6A
:10207000D08A001080810010F8B5DE4657464E46E3
:102080004546E0B505000F0092461E000A9B9E42A1
:102090004ED3330E994636020A9A00233000494641
:1020A00001F054FD80466C006419A4002E4B9C4640
:1020B00064446368834200D260602B1FDBB29B469E
:1020C000012B3BD9C0239B012343802212011A60BC
:1020D000AB00264A9958002905D0506901F0F4FC5C
:1020E00001300138FDD153465A0123685A40E0239C
:1020F0001A4080235B0123431A605A46012A28D9DB
:1021000080239B012343802212011A6043466360AF
:10211000424600233000494601F018FDAD00134B44
:10212000585101203CBC90469946A246AB46F8BDAA
:102130000F4B104A2D211048FFF768FF012FC1D126
:10214000C0239B01234303221A60A368DB07FCD54D
:10215000C9E72168794003220A401A60A368012276
:10216000BA401A42FAD0CBE700800040900B002022
:10217000E08A0010388B0010F48A001030B583B06C
:102180000C2000F027FBFEF7F7FC00280DD0002301
:10219000092B05D899002D4A2D4888500133F7E7BF
:1021A0002A4B2C4A5A6203B030BD2B4B00229A674F
:1021B00000F07EFB294B01221A60274B5B6C012B40
:1021C000FBD1274B03221A60234B9B6B012BFBD1C6
:1021D000022400940533234A0121234800F06EFABB
:1021E00000940523214A0121214800F067FA214B80
:1021F0000093002202210420FFF73EFF1E4D0095B0
:102200002B00002201210520FFF736FF104C00941F
:102210002300002200210720FFF72EFF0094230057
:10222000002200210820FFF727FF0A4B009323001C
:10223000002200210920FFF71FFF00952B0000223C
:1022400000210620FFF718FFADE7C046900B0020E5
:10225000006CDC021BB70000008000403CB0004076
:1022600030B00040002F68590080024000389C1CAC
:1022700000C00240001BB700405973078000014BAB
:10228000C0587047900B0020074B9B6810308000AF
:102290001950BFF35F8FBFF35F8F044B00211960AC
:1022A00082F310887047C04600ED00E0240100D0A2
:1022B00010B5091A04394808090B05D14005400D2D
:1022C000044B184380B210BD034B044A8C210448D0
:1022D000FFF79CFE00E0FFFF488B0010248D0010EC
:1022E000588B001010B5091A04394C08090B08D195
:1022F0004905490D064A11430180064B234343809B
:1023000010BD054B054A94210548FFF77FFEC046E6
:1023100000F0FFFF00F8FFFF488B0010308D001029
:10232000588B001001238340034A10681840431E55
:102330009841C0B27047C04600E100E0002904D0D7
:10234000034B1860034B18607047034B1860FBE7A2
:1023500080E200E000E100E080E100E010B5012350
:1023600083401800FFF7EAFF10BD000001238340FF
:10237000014A13607047C04600E200E0024B9B68D0
:1023800010308000C058704700ED00E070B50400C8
:102390000D00EFF3108672B60C4B1B68002BFBD0C0
:1023A000BFF35F8F2000FFF7E9FF094B984201D090
:1023B000A84205D1320029002000FFF765FF70BD5B
:1023C000044B054A70210548FFF720FE240100D088
:1023D000CD010010948B0010088D0010588B001058
:1023E000F0B5CE46474680B583B006000D00EFF34A
:1023F000108872B6574B1B68002BFBD0BFF35F8F62
:10240000554B9A6834001034A300D758534B9F4261
:1024100007D0AF4200D19BE00197514BFB1A2F2B05
:1024200009D9424639003000FFF72EFF03B00CBC3B
:1024300090469946F0BD3000FFF774FF81460021B9
:102440003000FFF78BFFBFF35F8FFDF70CFF002815
:1024500001D0844219D10123019C9C4323004049AF
:102460005B1A5B4148495943090D49B20022A368F0
:10247000AB4212D00622A256002A0DDB53009B1855
:102480009B002200364CE418F1E72021354B364AF8
:10249000FF313648FFF7BAFD2200AB4251D1062585
:1024A0006557002D39DB6B005B199A002C4B9B188C
:1024B0009A68A260DA79E27106229A56A2719B7933
:1024C0005BB2002B10DABD200002A0806B005B190C
:1024D0009B00234AD318264A1178997115704946F2
:1024E0003000FFF73BFF9CE7201D6B005B199B0052
:1024F0001B4A9B181A1D9B88D90A1C2907D159050C
:102500004915023149005118FFF7D2FEDDE7194B9A
:10251000194A9A211548FFF779FD00280CD1002AA5
:1025200008D0FF239371154B9380114B1A78A27139
:102530001970D4E7094FF8E7201D1149FFF7D2FEC3
:10254000CDE7AA210F4B084A49000848FFF75EFD76
:10255000024F66E7240100D000ED00E0CD0100103D
:10256000F4040020A88C0010588D0010588B001027
:102570007D100020908C0010488D001000BDFFFFE2
:102580002E050020CC8C0010AAAA000010B5032351
:1025900004009C43064A9446644422681840C000E4
:1025A000FC3383409A43130081400B43236010BDEA
:1025B00000E400E0F8B50400012606432D4BF31AB1
:1025C0002F2B28D8FDF74FFE00282BD0EFF31087D4
:1025D00072B6294B1B68002BFBD0BFF35F8F230023
:1025E000244D5B1B5B412E4D5D432D0D6DB2234B86
:1025F0009B6880001B58B3421BD00022032A32D8AC
:1026000053009B189B001B49CB189B795BB2AB42D4
:102610001FD00132F2E77221194B1A4AFF311A48D2
:10262000FFF7F4FCBA21194B164A49001648FFF788
:10263000EDFC124B9B68164A1A50164B1A78A27181
:102640001D70BFF35F8F0C4B00221A6087F3108858
:10265000F8BD08005300991889004118FF268E71B3
:102660000D4A8A80E9E786210C4B064AFF3106486D
:10267000FFF7CCFCF4040020240100D000ED00E0C2
:10268000D48C00106C8D0010588B0010FC8C001046
:10269000CD0100107D10002000BDFFFF1C8A00103E
:1026A000AAAA000010B500241F2C05D88021200004
:1026B000FFF76CFF0134F7E710BD0000F0B5CE4620
:1026C00000B504000E0091461F000C2001F0FCF93B
:1026D000050043011B1A9901C91AC900091889018B
:1026E000484601F0F1F90200103A98235B009A4243
:1026F00033D87B1E062B36D8069B013B062B32D8DF
:10270000069B9F4235D34B461A09AA4237D33F0452
:10271000069B1D032F432368002B36DB234B9C4273
:1027200041D080256D01224B1D60224B1D60224A45
:1027300092682B009343FAD12660A060221DC0232B
:102740009B01134321221A602268002AFCDAE76009
:1027500008221A6004BC9146F0BD184B184A162195
:102760001848FFF753FC184B154A19211548FFF775
:102770004DFC164B124A1F211248FFF747FC144B21
:102780000F4A22210F48FFF741FC22683F231340E4
:10279000B342C3D1A3681B051B0D8342BED1E368BE
:1027A000002FBBD1D6E78025AD01BCE700C00240B9
:1027B00000E0004000F0004000C00040888D0010A4
:1027C000608E0010A48D0010E08D00102C8E001083
:1027D000448E001080239B000343014AD36270475C
:1027E00000800540024B1A68024B5A607047C04691
:1027F000281000200080054010B50200144B8020F6
:10280000C0051860134B1448186000291BD0134BE7
:10281000E021C9041960002A00D132325001801A27
:102820008000801800010E4B186080235B049842E2
:1028300002D30B4B0B4A1A60FFF7D4FF074B8022E1
:10284000D2051A6010BD024BE021C9041960E2E70D
:1028500000B0054008200140FCFF010000A0054039
:1028600028100020FFFFFF0010B5030010000C4AE5
:102870008024E4051460002B0DD001221343094A83
:10288000094CD461094C5C4014625162936200218E
:10289000FFF7B2FF10BD034B0022DA61F7E7C04635
:1028A00000B0054000800540D3C007B02D3FF84F71
:1028B000064BAA2212011A602F22DA60044B054A45
:1028C0001A60024B5B68002BFBDA70470040024045
:1028D0000060024000B0FA00704710B5002802D036
:1028E0000B684968984710BD010000200A681378FA
:1028F000303BDBB2092B08D883001B185B00501C4F
:1029000008601078C0183038F0E77047F0B5DE4640
:1029100057464E464546E0B583B093461F000C9B94
:102920009A460D9C0E9B99460F9B9B0703D0B84679
:102930000F00060022E00192A34688464E46B946A3
:102940000700B44207D2551C4B4641462020B847E9
:1029500001342A00F5E73D004F465C46019B9B464B
:10296000B1464646B84637002E0007E0013C551CEC
:102970005346185D43463900B0472A00002CF5D174
:1029800035003E0047460F9B9B0707D4100003B05D
:102990003CBC90469946A246AB46F0BDB0464E467A
:1029A000B9462F005D46531BB342EFD2541C4B4631
:1029B00041462020B8472200F5E7F0B5CE4647460D
:1029C00080B585B0944698460C9D0D9C0EAB1B7847
:1029D0009946109A119B129EB7071BD4002B08D062
:1029E000F70706D54F46002F02D10C37374200D0EB
:1029F000013B944208D21F2C06D830272F550134B2
:102A0000F7E730272F550134F70703D59C4201D251
:102A10001F2CF6D9F70615D5770505D4002C03D061
:102A2000944224D09C4222D00F9A102A2BD00F9A85
:102A3000102A30D00F9A022A35D01F2C02D830220B
:102A40002A5501341F2C05D84A46002A31D02D22A0
:102A50002A55013403960293019400954346624639
:102A6000FFF754FF05B00CBC90469946F0BD621EBE
:102A7000012C06D00F9F102F01D01400D4E7023C88
:102A8000D2E71400D0E7B206D1D41F2CCFD87822D9
:102A90002A550134D1E7B206CCD51F2CCAD858220A
:102AA0002A550134C9E71F2CC7D860322A55013492
:102AB000C3E7720703D52B222A550134CAE7320730
:102AC000C8D520222A550134C4E7F0B5DE46574662
:102AD0004E464546E0B593B081468A460892099332
:102AE0001CAB10CB1B789B461E9D219B9846002C4F
:102AF00003D1102342469A4390468023DB0046468A
:102B00001E4042461A4212D0002C22D000260EE06F
:102B10003033D9B2771C0AAB99552900200000F058
:102B2000D3FFAC4216D31F2F14D83E000400290057
:102B3000200000F0C9FFCBB2092BE9D9424692062A
:102B400005D54121C918C9B20A39C9B2E2E76121E4
:102B5000F8E7270043460693209B05931F9B0493A9
:102B600003955B46029301970AAB0093099B089A71
:102B700051464846FFF721FF13B03CBC90469946AA
:102B8000A246AB46F0BDF0B5DE4657464E4645463A
:102B9000E0B595B0089009910A920B931E9E1F9C78
:102BA00020AB1B789B46229B9946239D269B9A46E9
:102BB0003300234303D1103352469A439246802375
:102BC000DB0057461F4052461A4219D033002343B8
:102BD0002DD0002714E03033DAB27B1C98460CABC2
:102BE000DA554A462B003000210000F0AFFFA54225
:102BF0001FD819D043461F2B1BD8474606000C0090
:102C00004A462B003000210000F0A0FFD3B2092B70
:102C1000E1D95246920605D54122D218D2B20A3ADB
:102C2000D2B2DAE76122F8E7B145E3D901E0002347
:102C3000984653460693259B0593249B04934B4645
:102C400003935B460293434601930CAB00930B9BAB
:102C50000A9A09990898FFF7B0FE15B03CBC904657
:102C60009946A246AB46F0BDF0B5DE4657464E4605
:102C70004546E0B591B083468A460C9298461A9C28
:102C800008941B9D099522002B002000290001F0CB
:102C9000EAF9002800D0E5E001225242D34B20009F
:102CA000290001F0DBF9002800D0DBE001225242CC
:102CB000CF4B2000290001F0BBF9002800D0D1E063
:102CC00000220023089D2800099E310001F0B0F980
:102CD000002800D0DDE0089809990690079180232C
:102CE000DB001E9A1A400D921E9A1A4201D1062349
:102CF0001C930698079904000D000A000600024381
:102D000000D1CDE0080D4005400DBA4CA44660440A
:102D10000A03120BB84B13431F0001F0B7F9B74A6F
:102D2000B74B01F042F9B74AB74B01F017F904006D
:102D30000D000022B54B3000390001F006F9B44A0D
:102D4000B44B01F032F902000B002000290001F021
:102D500005F901F0B3F9814601F098F904000D007E
:102D6000AD4AAE4B01F021F90022AD4B01F0F6F86F
:102D700001F0A4F90600AB4AAB4B2000290001F09A
:102D800014F904000D00300001F080F9A74AA84BA7
:102D900001F00BF902000B002000290001F0D5F82A
:102DA00004000D0002000B0001F0FFF80A900B91E7
:102DB000A04BF31800261F0522002B00200029003D
:102DC00001F0CCF80E900F9122002B000020802102
:102DD000C90501F0BAF804000D000022964B0A98CC
:102DE0000B9901F0C4F80022944B01F0B7F80200EF
:102DF0000B000A980B9901F0BAF80022904B01F0F1
:102E0000ADF802000B000A980B9901F0B0F802002F
:102E10000B002000290001F0A1F802000B000E9821
:102E20000F9901F0A4F80022734B01F097F83200DB
:102E30003B0001F0BAF806000F0004000D00069AEE
:102E4000079B01F00BF900282CD001235B429C4624
:102E5000E1440022794B3000390001F088F8040089
:102E60000D001FE01E9B04931D9B03931C9B02936C
:102E7000089A099B0092019343460C9A5146584682
:102E800000F0F8F811B03CBC90469946A246AB461B
:102E9000F0BD069580231B069C46664407961EE7F8
:102EA000002399464B466333C62B1FD804261E9B2E
:102EB0001B0527D52B00234310D0624A624B06988E
:102EC000079901F0C3F8002800D183E000225F4B8E
:102ED0000698079901F0ACF800287BD01C9B4B4565
:102EE00006DD4A46981A431E1C9303E00526DEE7DA
:102EF00000231C938023DB001E9A1A431E92002697
:102F0000002399461D9B9E426ED29F1B02231E9A50
:102F10001A400A921E9A134202D0002E00D00027B7
:102F20004B46002B07D022002B000698079901F092
:102F30001EF806900791002200230898099901F0D5
:102F400077F8002800D085E0414B1E9A1340049387
:102F500003971C9B0293069B079C00930194434696
:102F60000C9A5146584600F085F8002E00D189E7AA
:102F70001E9B9B067AD54525441C434602005146BC
:102F80002800D8474B46DA179B1853400522059274
:102F9000013E0496002203920A3202924A46D00F62
:102FA000019000934346220051465846FFF78DFD9D
:102FB0000A9B002B00D165E702005F460C9E1D9D19
:102FC000931BAB4254D2541C434651462020B84771
:102FD0002200F5E71C9B002B94D00D9B002B91D079
:102FE0001C9B013B1C938DE700278FE7FFFFEF7FC2
:102FF000FFFFEFFF01FCFFFF0000F03FFB799F5058
:103000001344D33FB3C8608B288AC63F0000F83F03
:1030100061436F63A787D23F71A379094F930A4039
:103020000000E03F1655B5BBB16B0240EF39FAFE28
:10303000422EE63FFF03000000002C400000244029
:10304000000018402D431CEBE2361A3F80842E41CD
:10305000FFF7FFFF069C079D220029008020000645
:10306000844661440B00069207936DE7652583E76C
:10307000100007E7F0B5DE4657464E464546E0B538
:1030800095B00690079193469946209F1E9A1F9BE4
:103090001000190000F0E7FF002831D10122524250
:1030A000BF4B1E981F9900F0C3FF002837D10122A3
:1030B0005242BC4B1E981F9900F0D0FF00283DD112
:1030C0000022B94B1E981F9900F0C8FF002850D16C
:1030D0000022B64B1E981F9900F0AAFF002848D185
:1030E000002200231E981F9900F0A2FF002850D153
:1030F00000239846229B5B0500D4B6E0002458E0EC
:10310000229B0393219B029303230193A84B0093DB
:103110004B465A4607990698FFF7F8FB0EE1229BAB
:103120000393219B029304230193A24B00934B46EC
:103130005A4607990698FFF7E9FBFFE00423229A15
:103140001A4022990B4210D09B4B002A0FD0042228
:103150002299039121990291019200934B465A467C
:1031600007990698FFF7D2FBE8E0944BEDE70322BE
:10317000EEE7229B0493219B039302971E9B1F9CC7
:10318000009301944B465A4607990698FFF76CFD49
:10319000D4E01E9A1F9B0020002100F0D6FE1E9056
:1031A0001F9101239846A5E70CAB30221A55013F29
:1031B00001341F2C01D8092FF6D81E981F9900F052
:1031C0007DFF050000F062FF02000B001E981F99B2
:1031D00000F0BBFEFA007A4B9B181A685B680A92F3
:1031E0000B9300F0E2FE0890099100F08BFF0600BF
:1031F00000F048FF02000B000898099900F0A5FEB6
:103200000890099100226F4B00F028FF00282ED073
:103210000136300000F036FF02000B000A980B99CF
:1032200000F00CFF002801D001350026002F2CD122
:10323000280000F02BFF02000B001E981F9900F0E1
:1032400084FE06000F0000225E4B00F0F1FE002815
:1032500042D100225B4B3000390000F0FFFE002815
:103260003AD1EB0738D5013536E0062746E700228C
:10327000544B0898099900F0DBFE0028D6D1002EA7
:1032800001D0F307D2D50136D0E7AA461F2C11D8BA
:10329000013F0A21300000F017FC651C30310CABF7
:1032A00019550A21300000F00FFC092E26D906001E
:1032B0002C00EBE7554604E00CAA302111551F0005
:1032C00001341F2C02D87B1E002FF5D11F2C03D8F0
:1032D0000CAB2E221A5501341F2C14D80A212800B9
:1032E00000F0CAFB661C30310CAB19550A212800CE
:1032F00000F0C2FB051E05D03400EDE72B0055465B
:103300001C00DEE734000323229A1340012B1CD05B
:103310001F2C06D84346002B32D00CAB2D221A5559
:103320000134229B0393219B029301940CAB0093E5
:103330004B465A4607990698FFF7E8FA15B03CBC89
:1033400090469946A246AB46F0BD219B002B13D078
:103350004346002B02D10C3313420FD0219B013B7B
:103360002193190003E00CAB30221A5501348C4232
:10337000CED21F2CF7D9CBE72199F8E72199F6E7B0
:10338000229B5B0704D50CAB2B221A550134C8E7EE
:10339000229B1B07C5D50CAB20221A550134C0E770
:1033A000FFFFEFFFFFFFEF7F65CDCD4165CDCDC1C5
:1033B000788E00107C8E0010708E00106C8E0010C5
:1033C000689000100000E03FF0B5DE4657464E46DC
:1033D0004546E0B593B082468B469046119300294E
:1033E00000D1ECE200275546119B1878002800D147
:1033F000E8E2252809D07C1C43463A005946A847F4
:10340000119B013311932700EEE701331193002440
:103410001DE00B00303BDBB2092B37D92A293AD00B
:1034200000230A93119B1A782E2A44D000239A462F
:10343000119A1378683BD9B2122900D980E08B0029
:10344000CB49CB589F4601231C4301321192119A5C
:1034500011780B00203BD8B21028DAD88300C54879
:10346000C3589F4602231C4301321192EFE7042305
:103470001C4301321192EAE708231C4301321192E6
:10348000E5E710231C4301321192E0E711A8FFF792
:103490002BFA0A90C6E71C9B1A1D1C92186800287C
:1034A00004DB0A90119B01331193BBE702231C43F9
:1034B00043420A93F6E78022D20014435A1C119229
:1034C0005A781300303BDBB2092B04D92A2A07D0E3
:1034D00000239A46ACE711A8FFF706FA8246A7E751
:1034E0001C9B1A1D1C921868002804DB8246119B45
:1034F000013311939CE70020F8E780235B0023430E
:10350000511C119152786C2A01D01C0018E0C02384
:103510009B001C430131119112E080232343511C75
:1035200011915278682A01D01C0009E0C0231C4385
:103530000131119104E080235B001C4301321192A0
:10354000119B18780300253BDAB2532A00D92CE2EC
:103550009300894AD3589F4680239B001C43013225
:103560001192EDE780235B001C4301321192E7E7E3
:10357000782809D0582838D06F2838D0622838D019
:1035800010239C430A2600E01026582833D06928CF
:1035900003D0642801D00C229443630501D5012295
:1035A000944369282AD0642828D0A30500D59FE039
:1035B000E30500D5B8E0630600D4CAE01C9A111DEB
:1035C0001C911168FF220A4005940A9B04935346FC
:1035D0000393029600230193009243463A00594612
:1035E0002800FFF772FA070027E01026CDE708262B
:1035F000CBE70226C9E720221443C8E7A30520D45D
:10360000E30550D4630666D51C9A111D1C91116800
:10361000FF220A40D317D118594005940A9B0493FE
:10362000534603930296D20F0192009143463A000B
:1036300059462800FFF749FA0700119B01331193FF
:10364000D2E61C9BDA1D07218A43110008311C9128
:10365000116853689C46DB170C930D930C9A0D9BD5
:10366000100048400E90624653400F930E980F99F9
:103670000C9A0D9B801A99410E900F9108940A9B09
:103680000793534606930496002305936346DA0F87
:1036900002920090019143463A0059462800FFF7F4
:1036A00072FA0700C9E71C9A111D1C911268D31702
:1036B000D118594005940A9B0493534603930296EC
:1036C000D20F0192009143463A0059462800FFF775
:1036D000FCF90700B1E7230605D51C9A111D1C91C2
:1036E0000023D25E96E71C9A111D1C91126891E787
:1036F0001C9BDA1D07218A43110008311C91089494
:103700000A9B07935346069304960023059302935E
:10371000136854680093019443463A0059462800C0
:10372000FFF731FA070088E71C9A111D1C910594D8
:103730000A9B049353460393029600230193136854
:10374000009343463A0059462800FFF7BEF90700A8
:1037500073E7230606D51C9A111D1C9112681204EA
:10376000120C31E71C9A111D1C9112682CE7C046FF
:10377000848E0010D08E0010148F001046281AD0AE
:103780001C9B0733072293431A0008321C920494AF
:103790000A9A0392524602925C681B680093019455
:1037A00043463A0059462800FFF764FC0700119B86
:1037B0000133119318E620231C43E1E7672801D069
:1037C000472802D180231B011C43452801D04728EC
:1037D00001D120231C431C9B0733072293431A006B
:1037E00008321C9204940A9A0392524602925C6830
:1037F0001B680093019443463A0059462800FFF79E
:1038000033FA0700119B01331193EDE502231A00EF
:103810002240924623421FD001241C9B1A1D1C9259
:103820007A1C9146187843463A005946A8475346B1
:10383000002B16D1119B013311934F46D4E5561C32
:10384000434659462020B847230032005C1C9D4265
:10385000F5D83D001700E0E701233A002F000A9D4C
:10386000F4E74A46A9460A9D06E0571C43465946D6
:103870002020C84734003A00661CA542F5D84D46C2
:103880009146D7E71C9B1A1D1C921B68994653460C
:10389000002B00D1013B4E4601E001361300327887
:1038A000002A02D05A1E002BF7D14B46F21A109272
:1038B0008023DB0026001E401C4203D0524501D964
:1038C0005346109302231A0022400B92234205D044
:1038D0003A0037004C46A946554620E03A00109B76
:1038E0005F46B3462E0006E0551C434639002020B3
:1038F000B04723002A005C1C0A999942F4D835008D
:103900005E46BB46109437004C46A946554606E035
:103910001D000134561C43465946C84732002078E2
:10392000002804D0002FF4D06B1E002DF0D117001A
:103930004D460B9B002B03D1119B0133119353E593
:103940000A9F109B06E0561C434659462020A84774
:10395000230032005C1C9F42F5D81700ECE72123BE
:103960001C431C9B1A1D1C921B6800930594082382
:103970000493534603931023029300230193434679
:103980003A0059462800FFF7A0F80700119B0133C1
:10399000119329E57C1C43463A0059462520A84747
:1039A000119B0133119327001EE57C1C43463A000E
:1039B0005946A847119B01331193270014E50B4B7F
:1039C0009A460FE5AA4647450DD343465A1E43463D
:1039D00059460020D047380013B03CBC9046994669
:1039E000A246AB46F0BD3A00F1E7C046D928001028
:1039F00000B585B0029003910121009313004A4263
:103A000002A90248FFF7E0FC05B000BDDB2800106A
:103A100001480421014B184740050020413A00109D
:103A200010B5010018231B8814221088984710BD78
:103A300010B5010018231B8816221088984710BD66
:103A4000F0B5C64600B507000E00002501239846D4
:103A500000E00135B5420AD2AC003C192068FFF7FE
:103A6000DFFF20600028F4D100239846F1E74046AC
:103A700004BC9046F0BD0000124A936F9B0815D21B
:103A80009066D166002905D0FFE7FFE7FFE7516F99
:103A9000106F704704B580210906C21751400028F5
:103AA00000D0C84304F020F9002104BDF0B5146E25
:103AB000556E576F166FFFF7E3FF1466556657672D
:103AC0001667F0BD000000D0114A936F9B0813D217
:103AD00010665166002905D0FFE7FFE7FFE7516F49
:103AE000106F704704B5002801D00020C04304F0D7
:103AF000FBF8002104BDC046F0B5146E556E576F3B
:103B0000166FFFF7E5FF1466556657671667F0BD39
:103B1000000000D094464E4A926F9208624601D24D
:103B200030E0C046F0B54A4EB56F6D08FCD3346E38
:103B3000756E776F366F00F025F89446444A146628
:103B40005566576716676246F0BDC0469446404AC0
:103B5000926F9208624601D258E0C046F0B53C4EE2
:103B6000B56F6D08FCD3346E756E776F366F00F0ED
:103B70004DF89446364A146655665767166762468E
:103B8000F0BDC046002B24DB11D000293EDA00B581
:103B9000C943404200D1013100F038F8C9434042E6
:103BA00000D10131DB43524200D1013300BD002A74
:103BB000EBD1002801D1002905D00020C90FC90789
:103BC00001D1C043410800B504F086F8002200236B
:103BD00000BD00B500290ADBDB43524200D10133AE
:103BE00000F014F8C943404200D1013100BDC9437F
:103BF000404200D10131DB43524200D1013300F099
:103C000005F8DB43524200D1013300BD002923D126
:103C1000002B18D1002A0CD0BC460D4F38667A66AE
:103C200000210023FFE7FFE7FFE77A6F386F674661
:103C30007047002801D00748010000B504F04CF897
:103C40000022002300BD02000B000020002170476D
:103C5000000000D0FFFFFFFF002B00D0BDE0130CE1
:103C600026D1002AE7D080B4104F39667A66FFE784
:103C7000FFE730B4040C7B6F396F1B0423433B66B2
:103C8000FFE7FFE7FFE7C04684B27B6F3D6F1B0491
:103C900023433B66FFE7FFE7C04600232C042D0CBF
:103CA0007A6F386F00196941B0BC7047000000D0CE
:103CB000F0B594460025140E01D112020835140FF8
:103CC00001D112010435940F01D192000235D40FB5
:103CD00001D152000135D40B0134254F7C66254CAF
:103CE0003C660E0C93B2FFE7FFE7FFE73C6F6643CD
:103CF000360C7703BE467343DF0B5B04C01AB94131
:103D0000130C7343DB18C91ACE086643360CB6444D
:103D100093B273431F0F1B01C01AB941130C7343B5
:103D20001F0B1B05C01AB941860D8F023E43664327
:103D3000360C092D24DB520A7243801A7703460A97
:103D40006643360C16235B1BDE40DF40BF1964461A
:103D50006643821B7046043506330100D940A840F3
:103D6000C01900D30131A24206D20023F0BD0000E9
:103D7000000000D0FFFFFFFF121B0130F3D3F1E77B
:103D800009277F1BFE406446A2B27243801A00D20C
:103D90000139220C7243130C1204821A99410B0050
:103DA0007046043513370100F940A840801900D34C
:103DB0000131002B02D1A2420AD2F0BD013000D362
:103DC0000131121BFAD2013BF8D1A24200D2F0BD60
:103DD000013000D30131121BF7E7F0B51C0C00D005
:103DE00080E00CB400251C0A04D11B02160E3343DC
:103DF000120208351C0B04D11B01160F33431201AC
:103E000004359C0B04D19B00960F3343920002357E
:103E1000DC0B02D192185B4101351C0097186441FC
:103E20000134464F7C66464C3C660E0CFFE7FFE7CC
:103E3000FFE7C0463C6F6643360C7703BE4697B239
:103E40007743C01B00D20139C01B00D201399FB299
:103E50007743C91BC91B170C77437E04FF0B801BDC
:103E6000B941CE086643360C0C2D33DBB644120B39
:103E70001F053A431B0B97B27743C01B00D2013991
:103E80009FB27743C91B170C77433E043F0C801B3E
:103E9000B941860D8F023E43664329277F1BFE40B2
:103EA0000C3D7746AF40BF1930BCA2B2ABB27243F3
:103EB0007343801A9941220C7243130C1204801A26
:103EC000994102000B000137001BA941F9D2781E6D
:103ED0000021F0BD0C277F1BFE4077467F0BAF40D3
:103EE000FF19E0E700245D1C07D0144F7D6639669A
:103EF000FFE7FFE7FFE7FFE73C6F95B29EB2654340
:103F00006643401BB141150C1E0C654366433604E5
:103F10002F0C3E432D04401BB141994204D20200B4
:103F20000B0020000021F0BD01D19042F7D3801A90
:103F3000994101349942F2D3F6E70000000000D025
:103F4000FFFFFFFF48404140484018B41B4B5B68EF
:103F5000FC46019308BD04DF0B42001018B4174B58
:103F60001B68FC46019308BD00DF15420010944613
:103F7000134A926F920809D2624618B40F4BDB685D
:103F8000FC46019308BD0CDFCD4400100C4AF0B58F
:103F9000146E556E576F166F6246FFF7EEFF084AB4
:103FA0001466556657671667F0BD18B4034B9B68D7
:103FB000FC46019308BD08DF714300108410002007
:103FC000000000D0FFB550404240504059404B40A7
:103FD000594000E0FFB5154F4C00640D03D0BC42C2
:103FE00004D10C0314D80020090D09055C00640DF0
:103FF00003D0BC4204D11C030AD800221B0D1B05B0
:1040000001264B4009D44B4003D58B4200D182425C
:10401000FFBD9942FCD19042FFBD0B43DB18034327
:104020001343F5D0C9434918FFBD0000FF07000046
:1040300000B5FFF7CFFF804100BDC04600B5FFF7D8
:10404000C9FF01D9002000BD012000BD00B5FFF768
:10405000B9FF01D9002000BD012000BD00B5FFF768
:10406000B1FF804100BD012040054A00121804D86C
:104070005A00121801D80020704701207047002014
:10408000704700000021002805D17047C117484043
:10409000401AFAD0C90713B5064B1B6898470CBCE9
:1040A000441CA2401005120B0349091B09051943C2
:1040B000114310BD841200201F04000010B54C00F5
:1040C000620D8023D218DB00D21A5B057E2A10DD38
:1040D0009E3A13DACC170903490819435242D140DA
:1040E000640001341532202A05DAD04008436043C9
:1040F00010BD002010BD0846604310BDC80FC01899
:10410000013810BD18B4044B5B6AFC46019308BD2E
:1041100024DFF946001000008410002070B513233E
:104120001C78012C07D0012C0EDC022C02DC1C4A6E
:104130001C4B9A6470BD00231F2BF4D899001848BB
:10414000184A88500133F7E71748FFF771FC05005C
:104150001648FFF76DFC023803789B007F2B19DDB2
:10416000802229000F4800F0E3FB022CDDD1104B28
:104170001A88B5231B029A4209D10E4B1A880E4B9E
:104180009A4204D10D4B1A880D4B9A42CDD0002093
:10419000FDF75AFF0B4B0C4A30210C48FDF736FF58
:1041A000D141001084100020534400005346000009
:1041B00054380000D8380000494600009C38000000
:1041C00059460000B890001060910010189100103E
:1041D00007B56046002800D100BE01880A0A0230F7
:1041E000DF2AFAD1C9B2820804D3028840880004C9
:1041F000104300E00068024A5050039007BD0000E1
:10420000841000200FB403BC0CBCF0B50124E407FB
:10421000634000E0F0B50C0DCF0F661E3605891B1C
:10422000640503D3C943404200D30131640D03D078
:10423000661CF60A07D0E41B00207F00791C890762
:104240008912803C24031D0DDF0F6E1E36059B1B5B
:104250006D0503D3DB43524200D301336D0D03D010
:104260006E1CF60A07D0ED1B00227F007B1C9B070B
:104270009B12803D2D032F1B661B58D4A446202E75
:1042800046DA20371400BC401D00BD40F2403341E7
:104290002A4380185941CB0F05D0C943C04300229F
:1042A00064425041514162464D0D28D10D0D07D158
:1042B00000281FD0241940414941013A0D0DF9D081
:1042C000640006D3013000D30131002C01D1400835
:1042D0004000013A0BD4941CE40A04D112051144A5
:1042E000DB071944F0BDD907204B194300E0D9077B
:1042F0000020F0BD0029DDD1002CDBD1F0BD013262
:10430000C6074008CD0728434908002EE1D0D9E769
:104310003C2E29DA203E40371400BC4000D0012456
:10432000F24014431A00BB401C43D317ACE7AC4621
:10433000202F08DA20360400B4400D00B540F840C4
:1043400039412843A5E73C2F0CDA203F40360400D2
:10435000B44000D00124F84004430800B1400C43AD
:10436000C117EAE710001900002494E70000F07F6D
:10437000F0B50C0D661E3605891BE60A6405640D52
:1043800002D0651CED0A04D0002001210905803C03
:104390002403A4461C0D671E3F05DB1BE70A6405CA
:1043A000640D02D0651CED0A04D0002201231B0518
:1043B000803C24037740644497B484B296B274433B
:1043C000070C7E43150C6F4380B26843361802D346
:1043D000012000043F183004350C00197D4184464B
:1043E00088B29AB250430C0C62431F0C7C438EB2CD
:1043F0007E43921902D301263604A4191604170C21
:104400003618674101BC81B29AB25143040C624331
:104410001B0C5C4380B25843121802D301200004E5
:1044200024181004130C401863412D185E4100201D
:10443000474106BC88B293B258430C0C6343120C3C
:10444000544389B251435B1802D301210904641813
:1044500019041A0C091862416D1856410020474191
:1044600018BCF902720D1143F0026A0D1043ED02FF
:104470000A0D03D16D1940414941013B124E9B1B6E
:104480007600B3420ED26D0007D301300026714191
:104490006646354301D1400840001B05C918E407B2
:1044A0002144F0BD0BDA013306D1013004D10131D2
:1044B0004F0D01D04908F2E7E1070020F0BD0136B9
:1044C00031050020EBE70000FF030000F0B51C0DF4
:1044D000671E3F05DB1BE70A6405640D02D0661CFE
:1044E000F60A04D0002201231B05803C2403D025BA
:1044F0002D060026F6432E661E096E66CE0FF619AF
:10450000B44649004F0D02D07E1CF60A03D00020AD
:104510000021403F3F033E1BB600B444013F7F05EE
:10452000C91B49082E6F013676089C02950D25435C
:104530007543ED137543AD1301356D10F603761B0E
:104540000CB4CC02450D2C43A2B2B3B25A43270C93
:104550007B43350C6F43A4B26C431B1902D3012477
:1045600024043F191C041D0CA4187D4124196D411D
:10457000009A91B2ACB26143170C7C432B0C5F43A1
:1045800092B25A43A41802D301221204BF18220483
:10459000230C52187B41019C6C431B19520ED9010C
:1045A0000A434401A01A81B2B2B2514303145A43E0
:1045B000360C734387B27743D617D21900277E4152
:1045C00036049B191704160C7F185E417316ED18FC
:1045D000F301002680337541A90F06D16400690AF2
:1045E000E8055B0A184309D22FE004229444803383
:1045F0007541A90AA8059B0A184326D340414941A1
:104600002404009A019B0D005543641B4343E41AA4
:1046100095B286B27543170C7E43030C5F4392B28A
:104620005A43B61802D301221204BF183204330CC5
:1046300052197B4152429C41002C02D4002201308D
:1046400051414008CA071043490802B06246D707E3
:104650009210084BD218084B9A4203D212058918BF
:10466000C919F0BD0020002A01DC3900F0BD01337A
:104670001905F5E7FD030000FE070000624618CAB1
:10468000944600291ADAC01861415B463B415C46FA
:10469000B4405246FA40224344464D4662416B4183
:1046A000904699462B46B3403D41FC401C43524640
:1046B0005B46A241AB4192469B467047C01AA1415E
:1046C0004B463B414C46B4404246FA402243544696
:1046D0005D4662416B4192469B462B46B3403D414D
:1046E000FC401C4342464B46A241AB419046994692
:1046F0007047002000217047002200B5203200F0F2
:1047000004F8080000BD000000220B15F1D410B51C
:10471000944600F02FF81414013400DA0021CB176E
:10472000134C20476244343A0CD40C2A07DA0400B4
:104730009140904052422032D440214310BDD84392
:10474000D94310BD203207D40C4694405242203247
:104750001141D040204310BD0800C917203203D4B6
:1047600052422032104110BD1800190010BD000047
:10477000254700100A0DCC0F531E1B05C91A520500
:1047800003D3C943404200D30131520D03D0531C1F
:10479000DB0A07D0121B00206400611C8907891204
:1047A000803A1203014BD21A70470000FF03000049
:1047B00051434343C9188C46110C83B24B4310B488
:1047C000040C614392B280B2504362431C041B0C40
:1047D000001910BC59411304120CC0185141614416
:1047E0007047000070B513231D782A48FFF720F9A1
:1047F0000400012D11D0012D09DDA31E1B789B00A3
:104800007F2B40DD80222100234800F091F82348CF
:10481000FFF706F9224B186070BD542201001E48B4
:1048200000F086F81F4B1A881F4B9A421CD1A72311
:104830009B011A881D4B9A4216D11D4B1A881D4B9D
:104840009A4211D11C4B1A8894239B019A420BD196
:104850001A4B1A881A4B9A4206D11A4B1A681A4BED
:104860009A4201D1152307E01848FDF7EDFB9900A6
:104870001748094A885001331F2BF8D9144A064BB0
:104880001A62DA61B7E7134B134A42211348FDF766
:10489000BDFBC04653460000841100204C3300008D
:1048A00084120020EE290000C40F0000C20D000099
:1048B000962B0000C0B50000182B0000CC2A000089
:1048C00010B50000FC2C000051ED8764A0810010A1
:1048D000E148001074910010EC910010A8910010B4
:1048E00007B56046002800D100BE01880A0A0230E0
:1048F000DF2AFAD1C9B2820804D3028840880004B2
:10490000104300E00068024A5050039007BD0000C9
:104910008411002001480421014B18475005002054
:10492000413A0010014B1B68184700005005002059
:10493000014B5B681847000050050020F8B50700E0
:104940000D001600437C002B02D0002400200CE058
:1049500003681100280098472DE03B7C10E00221FD
:1049600015483B689847601C0134B44214DA002CA7
:10497000F3DD2B19013B1B780D3B5A425341DBB24F
:104980002A5D0A2AF0D1002BEED1A042E7DA211AE3
:1049900028183B689847E2E7B04203DA311A281832
:1049A0003B689847002E06DDAD19013D2B780D3B85
:1049B0005A4253413B74F8BD7492001070B5050023
:1049C0000368002B16D00C4B1C6805E0290004C9B5
:1049D0002000FFF7B3FFE468002C09D02368002B08
:1049E000F9D0064B1B68002BF0D0A342F3D1EDE7C2
:1049F00000232B6070BDC046200C0020240C00203A
:104A000070B505000C000B68802B05D021684B1C8D
:104A100023606418257170BD0800FFF7CFFFF5E72C
:104A200010B582B0D0231B0600241C5701A90748EB
:104A300003F062F9002806D1019B9C4203D0034891
:104A400003F06AF9012002B010BDC046BC05002089
:104A500010B5024803F038F910BDC046BC0500206F
:104A6000F0B5C64600B582B006000D001700FFF78E
:104A7000D7FF80466B1C02D0184B1C680DE030003D
:104A800003F0E8F80500F7E76B46D91D0A230B7021
:104A900001222000FFF752FFE468002C10D02368A9
:104AA000002BF9D00E4B1B68002B01D0A342F3D191
:104AB0002A0031002000FFF741FF002FECD0E3E790
:104AC0004346002B06D1681E8541E8B202B004BC03
:104AD0009046F0BDFFF7BCFFF5E7C046200C002074
:104AE000240C002010B582B004006B46D81D047061
:104AF00000220121FFF7B4FF200002B010BD00002A
:104B00000C4B1A681300002B0BD0834202D01A0002
:104B1000DB68F8E7002903D1DB68D3600023C360BA
:104B200070470029FCD0002A01D0D060F8E7014B83
:104B30001860F5E7200C002010B5064B1C6800E05B
:104B4000E468002C04D06368002BF9D09847F7E79D
:104B500010BDC046200C002070B5050003F07AF8A7
:104B60000400012201002800FFF77AFFFFF7E4FFAD
:104B7000200070BD70B5A2B004000E00FFF750FF1A
:104B800005008422002101A8FFF7CCFE330022009B
:104B900001A90848FEF72CFF040001A8FFF70EFF4B
:104BA000FFF7CAFF002D02D1200022B070BDFFF731
:104BB0004FFFF9E7014A00100FB400B583B004A914
:104BC00001C90191FFF7D6FF03B008BC04B0184734
:104BD00010B500F085F800F0CBF910BDF0B583B04A
:104BE00000251AE06B4607330D241C70002403E0F7
:104BF0001F78176001340133002C1CD19769BF0660
:104C0000FCD4F5E71E78166001340133002C03D183
:104C10009669B606FCD4F5E701358D4210DA094BEA
:104C20001A68465D084BD3185C4263415B00074C31
:104C30001B5FB342D6D06B4607331E700024E5E7F6
:104C400003B0F0BD641000200080FCBF8010002085
:104C5000F0B583B0070000200DE09369DB06FCD4BB
:104C600013682B7001340135002CF6D06B460733E6
:104C70001B780370300088420CDA094B1A6893697C
:104C800010252C001C401D4204D1461C38186B46D0
:104C9000DD1DE9E7002801D003B0F0BD0338FBE7D4
:104CA0006410002070B515001C000B4B1860FBF75A
:104CB000DDFF002D06DA002C09DA01210748FFF795
:104CC0001FFF70BD02212800FBF7C0FEF3E70221A1
:104CD0002000FBF7BBFEF0E7641000206005002019
:104CE00010B5064B1B78064B1B78E12101230022EF
:104CF00049020448FFF7D6FF10BDC046109B0010C4
:104D0000149B00100040034070470000014B00223C
:104D10001A7070477E1000204B79FF2B0CD18B79D5
:104D2000002B0BD1CB79012B0AD1082A0AD98A781A
:104D3000054B1A70092000E0002070470020FCE7B6
:104D40000020FAE70020F8E77E10002001207047DD
:104D500070B500292BD1117953791B020B431549EA
:104D600009788B4201D0002070BD5378012B03D00D
:104D7000022B15D00020F7E79378D2781202134364
:104D8000D2050BD55A0A012595407F241C400A48BC
:104D9000FEF746FE03002100280098470025F4E7AF
:104DA000642200210020FDF75FFD0120DCE70120E7
:104DB000DAE7C0467E100020554200000123037050
:104DC00000487047B892001010B50B784A7812026C
:104DD0001A438B781B041A43CB781B061343962285
:104DE000D200934200D010BD0348FEF719FE030025
:104DF000002108009847C0465542000030B583B0F6
:104E000005000C0001A9184802F076FF002808D11F
:104E1000D0231B061B68019A9A4221D0124802F047
:104E20007BFF002001F07AFE002807D103246442B2
:104E30000D4802F049FF200003B030BD002001F012
:104E40008FFE002802D103246442F1E722002900EA
:104E5000002001F091FE041EEAD103246442E7E73A
:104E600003246442E7E7C0464C10002010B500213F
:104E7000054802F041FF002800D110BD01F0F0FB11
:104E8000014802F021FFF8E74C100020F0B5C646BB
:104E900000B582B080460D0001A92E4802F02CFF1B
:104EA000002808D1D0231B061B68019A9A420FD014
:104EB000284802F031FF002001F030FE002847D1E1
:104EC000254B0020002118605960224802F0FCFEAA
:104ED00002B004BC9046F0BD01F0C2FB002001F01E
:104EE0005FFE002001F01AFE0028EED0002001F045
:104EF000D9FE00281DD0AC42E7DA2E1B002001F0BD
:104F0000D1FE0200864200DC3200002AE4D0434693
:104F10001919002001F0AAFE060001F0A1FB0020F3
:104F200001F03EFEA419FCF7BFFC0B4B1860596062
:104F3000E1E7FCF7B9FC084B1E685F68074A0023ED
:104F400092197B419942C0D8D5D19042D3D9BCE7C0
:104F50000024D0E74C100020E006002020A107002C
:104F600010B51F20FDF702FAFA208000002110BDC5
:104F700070B584B0244B1B7802F0E4F823491F205D
:104F8000FDF704FA01211F20FDF7E8F92048FCF79E
:104F90009CFDFCF7FFF90600FCF786FC04000D1EE3
:104FA00020DBFA229200002312196B41994202D8A9
:104FB00004D1904202D901225242D317002B17DBB1
:104FC0000121029100210191124900913000FCF76A
:104FD000F7F90400631E9C41E4B200280ED12000C2
:104FE00004B070BD0C4B0D4A3D210D48FDF70EF885
:104FF000094B0A4A3D210A48FDF708F801210948F2
:10500000FFF77EFDEBE7C046189B00106D4E0010C9
:105010004C100020614F001088850010F0920010A5
:10502000A485001074050020004870478893001084
:10503000004870473493001010B50400144B1B78DF
:10504000002B0DD0002C10D1124B134A5A80012393
:1050500001335B00C022920013430E48038010BD51
:1050600011210B4802F0D8FBECE7052C0ED8A40068
:105070000A4BE4580023122BEAD8E25C002AE7D05E
:105080000133590003484252DBB2F4E70020E6E75F
:1050900068100020F80B0020090400009C93001009
:1050A00003007F201840DB094000C0184001014B7D
:1050B000C0187047280C002010B582B001AB084A18
:1050C0001A80002408E001AB185DFFF7E9FF012317
:1050D000C370002303740134012CF4D902B010BD55
:1050E0000080FFFF10B5828B131C402A00D940239B
:1050F0009BB216490A68C260D3180B60990604D0A7
:105100003F218B43403311490B60104B19688B06CC
:105110000FD10F4B5A404B40802149018B420ED892
:10512000837F9B061A43A0231B061A4343681A6019
:1051300010BD084B084A52210848FCF767FF084B8E
:10514000054A54210548FCF761FFC0462C10002099
:1051500000001050B4930010D0940010E49300109D
:1051600038940010F8B504007F2630000840CD09BF
:10517000A1706F426F4167700E421AD10121E17038
:10518000012B18D0402A1ED8A283A377012D1ED050
:10519000C3001D4A94466344A360A36800221A60BA
:1051A00000281AD100236360184BE36001232370A9
:1051B000F8BD0021E3E78021C9008A42E4D3110051
:1051C0001348FCF741FF11001148FCF73DFFC300F5
:1051D000104A94466344A360DFE7012D0CD00138E8
:1051E000C0000D4B9C46604460602378002BDDD1ED
:1051F0002000FFF777FFD9E70138C000074B9C4636
:1052000060446060F1E7C046840010500001105017
:105210006C940010800010500C00105008001050CA
:1052200070B504000D001600FFF73AFF33002A00A6
:105230002100FFF797FF70BDF0B5CE46474680B519
:1052400083B0244B9B6D9846002601251AE0224B23
:10525000224ADA212248FCF7D9FE7F004F447F0121
:10526000204BDF19BA8AB97801230093002300206C
:1052700000F06AFE200000F023FA4346AB43984654
:105280006D0001364346002B1ED01F2E1CD843460E
:105290001D42F5D00F4BDB6D1D42D8D1124B9D65E1
:1052A00072080123334059424B41D9B28946FF2746
:1052B00017407C001C1964010A4BE418200000F020
:1052C000B5FA0028D9D0C8E703B00CBC904699467F
:1052D000F0BDC0460000115094940010E4940010FA
:1052E000E4930010280C00200030115070B5254ABE
:1052F0009823D45880235B0225001D401C4213D103
:10530000E3061FD4A3040AD580239B011D431D4B34
:105310001B6DDB031BD51C4B802252021A65E30474
:105320001BD4A54229D170BDFFF7C6FE0122174943
:10533000002000F0EFFD144B802292021A658025B8
:105340006D02DDE710231D43FFF776FFDAE7012248
:105350000221002000F0B6FDDDE70A4B00221A60B2
:1053600080235B011D4301320021002000F0BDFDC0
:10537000054B802212031A65D3E7290061400448D7
:10538000FCF762FE00001150003011500000105078
:10539000A094001070B50C0015001E00FFF780FEF1
:1053A00033002A00210000F071FA70BD10B5FFF73C
:1053B00083FE0123002200218020FFF7EBFF10BDB8
:1053C00010B50400037C002B11D183785A0605D157
:1053D000DB09012B12D00222094B9A6680221201AE
:1053E0000849200000F074F90123237410BD042142
:1053F000054B064AFF310648FCF708FE0122EBE7A1
:1054000000201150FFF7FFFFB4940010FC9400102F
:10541000E493001010B5FFF743FEFFF7D1FF10BD76
:1054200010B5040083785A0605D1DB09012B0AD098
:105430000222064B9A6600220549200000F048F936
:105440000023237410BD0122F3E7C0460030115041
:10545000FFF7FFFF10B5FFF723FEFFF7E1FF10BDD9
:1054600010B5002804D101210520FCF777FF10BDFD
:10547000AA21034B034AFF310348FCF7C7FDC0468E
:10548000C49400101C950010E493001010B500287F
:1054900002D1FFF78BFF10BDDB21034B034A49000C
:1054A0000348FCF7B3FDC046C49400102C950010CF
:1054B000E493001010B5002804D1064B802252025C
:1054C000DA6410BDD021044B044AFF310448FCF7D4
:1054D0009DFDC04600201150C49400103C95001062
:1054E000E493001010B5041E25D100F0C1F8154951
:1054F0000520FCF74BFF8022D20000211248FFF765
:1055000011FA124B124A1A60002240210020FFF7C4
:1055100087FE002240218020FFF782FE0D4B0122F2
:105520001A6480229205DA6490220B499950200077
:10553000FFF7C0FF10BDC521084B094A49000948C3
:10554000FCF764FDED520010280C00202C10002008
:10555000800110500000115010300100C494001060
:1055600010950010E493001010B5002808D10B78B6
:105570005B0602D14B78052B09D0FFF79DFD10BDCE
:10558000ED21054B054A49000548FCF73FFD8A78A7
:10559000044B1A60F1E7C046C4940010489500100F
:1055A000E49300100000115010B50B0000280DD13D
:1055B0000A7948790721014009021143DA789207F4
:1055C000920F9878FFF72CFE012010BDF521034BB8
:1055D000034A49000348FCF719FDC046C494001073
:1055E00064950010E493001010B504000800110049
:1055F0001A00002C04D10123FFF7CCFE012010BDBE
:10560000F221034B034AFF310348FCF7FFFCC0467D
:10561000C494001074950010E493001010B5002895
:1056200003D10800FFF7F6FE10BDFD21024B034A2F
:1056300049000348FCF7EAFCC4940010849500106C
:10564000E493001010B5002803D10800FFF702FF13
:1056500010BD034B034A04490448FCF7D7FCC0467D
:10566000C49400109495001001020000E49300100F
:1056700010B580235B040D4A13600D4A13600D4B77
:105680009A6880235B049343F9D10B4C9C22002140
:105690002000FFF747F98022520100210748FFF759
:1056A00041F9092363670333A36710BD00E000409D
:1056B00000F0004000C000400000115000001050F9
:1056C00000230374437443828382C38283617047DF
:1056D00010B5002902D083681B681940002A0FD03A
:1056E000114353050CD5826813685B050BD40B4B33
:1056F0000B401360FFE7FFE7FFE7FFE7FFE7FFE788
:105700008368196010BD83787F211940DB099B00F5
:10571000034A9A580348FCF797FCC046FFFBFFFF7B
:1057200088050020AC95001070B50400C58A802261
:10573000D2002A434378002B0DD0E378002B16D0FB
:10574000802189010A4301214B40E37000212000A0
:10575000FFF7BEFF70BD818A83699C4661442A00C1
:10576000C068FFF7E5F8034A2A4392B2E5E7002153
:10577000E8E7C0460084FFFF70B504000E00150086
:10578000437C002B14D165820023A382A28B131CBF
:105790003F2A00D840232A1C99B28D4200D91A1CF6
:1057A000E28201236374A6612000FFF7BDFF70BD94
:1057B000FFF786FFE7E7000070B5040083681B6809
:1057C0009D05AD0D4278002A13D11B040BD4838AAA
:1057D000EB1883826378002B04D0E38AAB4201D9B3
:1057E000A38A638270BD0D4B0D4AEA210D48FCF778
:1057F0000DFC1B040BD5808AA3699C4660442A00DB
:10580000E168FFF795F8A38AEB18A382E2E7064B5D
:10581000034AF4210348FCF7F9FBC046CC9500107D
:10582000C0960010EC95001040960010F8B50400EA
:10583000457C002D19D0FFF7BFFF618AA28A8B1A21
:105840009BB2A08B061C3F2800D84026181CB7B27C
:10585000BB4200D9301CE08291420DD303D020001E
:10586000FFF762FF00252800F8BD81787F231940EB
:10587000034A0448FCF7E8FB0348FCF7E5FBC04695
:1058800088050020609600108C96001010B50478F2
:10589000002C04D0002B09D0FFF76EFF10BD3A2179
:1058A000044B054AFF310548FCF7B0FBFFF7BEFF8C
:1058B000F4E7C046B0960010D8960010EC950010A2
:1058C00070B5002503E00E787519ADB289199542BF
:1058D0000AD24C78052CF6D18E787A3434406400A4
:1058E0000419F609A355EEE770BD000070B5050078
:1058F0001B4C372200212000FFF714F8E01C102277
:10590000FF21FFF70FF8200013301222FF21FFF7CD
:1059100009F801F043F800240EE063001B19DA00D7
:10592000104B1B689B1802E0230010E000235B680B
:10593000280098470134E4B20B4B1B78A3420ED3E6
:105940000A4A002AF0D0A342E7D8E31ADBB2002BC0
:10595000ECD15A00D218D200054B9B18E7E770BD76
:105960003C0A00200407002079100020BD4D0010E3
:105970002498001070B505000C001600C86801F0EE
:1059800017F8E368320000212800984770BD000036
:10599000F0B5D6464F464646C0B582460139C8B234
:1059A000FFF746FB002802D04378022B0AD05F4A5B
:1059B0005F496048FFF700F900201CBC90469946FB
:1059C000A246F0BDC5796B1101225B4C1340190151
:1059D00023781026B343AD112A4052010B432021F6
:1059E0008B4313432370050009358278C3781B026B
:1059F00013438146994478E02B78A846ED187BE064
:105A00004E4A4B494B48FFF7D7F80020D5E76300D3
:105A10001B19DA004A4B1B689B1802E0230014E0B4
:105A200000239B683200290050469847071E14D176
:105A30000134E4B2434B1B78A34252D3424A002ABA
:105A4000ECD0A342E3D8E31ADBB2002BE8D15A0032
:105A5000D218D2003D4B9B18E3E7082818D986429C
:105A600016D3AA78344B9B18DB78FF2B17D1324B17
:105A70009B18DC704346002B2BD09A78AB789A4267
:105A800015D143461A796B799A4210D101231CE053
:105A90002F4A27492748FFF78FF800208DE7D822A3
:105AA000920023492348FFF787F8002085E7294A19
:105AB0001F492048FFF780F800207EE7A978591891
:105AC0001D4A5218D4700133DBB24246D2789A4252
:105AD000F4D8194823003A0029001330FFF7F0FEEC
